:020000040800F2
:106000000812002061E70008B5B8070851A4080885
:1060100031E80708B5B80708B5B80708B5B80708E4
:10602000B5B80708B5B80708B5B80708B11C0C081B
:10603000B5B807088C760C08411C0C086F6E0C086C
:10604000E1E10008B5B80708B5B80708B5B8070812
:10605000B5B80708B5B80708B5B80708B5B8070850
:10606000B5B8070835F20108A54C0808A5F10108E4
:10607000A14C0808B5B80708B5B8070829E7000813
:10608000B5B80708B5B80708B5B80708B5B8070820
:10609000B5B80708CDED0008B5B80708B5B80708CA
:1060A000B5B807080DEA0008EDE90008B5B807081B
:1060B000B5B807088D9907082DA407082D130C08FB
:1060C00029130C08BD9B070843130C0831130C0857
:1060D000FDA3070835130C086DA40708D9A4070809
:1060E000B5B80708B5B80708B5B80708B5B80708C0
:1060F0003DDE0708B5B80708B5B80708B5B8070802
:10610000B5B80708B5B80708B5B80708B5B807089F
:10611000B5B80708B5B80708B5B80708B5B807088F
:10612000B5B80708B5B80708B5B80708B5B807087F
:10613000B5B80708B5B80708B5B80708B5B807086F
:10614000B5B80708F5280108B5B80708C36D0C08ED
:10615000397B0708B5B80708C3120C08C9120C0828
:10616000B5B80708B5B80708B5B80708B5B807083F
:10617000F0B5114A114C124E00F00105E3695F07BA
:1061800013D40DB9334213D103EA00078F4207D16C
:106190000B4A1A40002A0CBF00206FF00100F0BD2E
:1061A000013AEBD16FF00200F9E74FF0FF30F6E76C
:1061B0006FF00100F3E700BF8096980000000350E5
:1061C0000200010070B50B4BD96911F480310DD17B
:1061D00001244FF48072084E084DF46020462C6470
:1061E0001A61FFF7C5FF3464EC6070BD6FF0010009
:1061F000FBE700BF000003500010035000200350D5
:106200004FF4803238B50E4B0E4C9A66E56941F674
:10621000713315400122E3630B4B0021DA60022346
:10622000606121202361FFF7A3FF10B92120FFF750
:106230009FFF0122054BDA600DB10023E36338BDF7
:106240000090005000000350001003500020035045
:1062500070B5134C6061E3695B071ED40E4656F8B7
:10626000043B8D18A361AE420BD1042300212120F1
:106270002361FFF77DFF58B9BDE870402120FFF78B
:1062800077BF08210846FFF773FF10B1042323618D
:1062900070BD56F8043BA361E5E74FF0FF30F7E728
:1062A000000003502DE9F84315464FF48032184B97
:1062B00089469A6603F51C33DF690646174041F6A6
:1062C0007132DA63012203F58053DFF84C80DA6023
:1062D00055B9284601220F4BDA601FB10022A3F501
:1062E0000053DA63BDE8F88306F5005404EA0804B5
:1062F000A41BAC4228BF2C46494622463046FFF735
:10630000A7FF0028E6D12644A1442D1BE0E700BFEB
:10631000009000500020035000E0FFFF000000004C
:10632000000000000000000000000000000000006D
:106330002DE9F84F602200212948A5F0D1FB482221
:1063400000212848A5F0CCFB00209FED237B264BA5
:10635000264E274ADFF888B0DFF8ACA0DFF8AC9013
:10636000DFF8AC80DFF8ACE01E4FA3F1180C242559
:10637000002145430BEB401443E9054A0CEB0504AF
:1063800043E9039843F8181C43F804EC2177216291
:10639000182404FB007442F8144C164C013042F8E7
:1063A000104C154C032842F80C4C144C42F8181CA5
:1063B00042F8084C124CA6EC027B42F8044C114CFB
:1063C00043F8241B2C442177216242F8241BCED1B0
:1063D000BDE8F88FAFF3008000000000000000006F
:1063E000B08401206884012014840120C01400209E
:1063F000A8830120417E01087BE9070899E9070885
:10640000CFE9070890830120697E01089DE907080C
:1064100063E90708A1E907082DE9F043022089B0E4
:10642000BCF0A8FE00B9FEE7654E336803B9FEE78D
:106430001020BCF09FFE3368624C9B880DF10B016D
:106440008DF80B30012320681A46BAF089F99DF8BF
:106450000B203168023A0023096892B22068BAF032
:106460007FF93368584993F829208DF814200022C9
:10647000CDE906121B681D7815F020051FD0206895
:10648000B9F00BFF002851D02068B9F006FF4DF09D
:10649000F7F902460B4646A1D1E900014DF094FB05
:1064A0008046079889464DF0EBF902460B46404678
:1064B00049464DF0A9F84DF00DFD012507902068E3
:1064C000B9F0F9FE9DF80B3098B3981DC0004DF05F
:1064D000E7F939A3D3E900234DF04CFA8046206850
:1064E0008946B9F0E8FE4DF0CBF902460B4640462E
:1064F00049464DF069FB8046079889464DF0C0F942
:1065000002460B46404649464DF07EF84DF0E2FC0F
:1065100007902020BCF02EFE80B14FF48050BCF0DC
:10652000FBFE78F058FE09B0BDE8F0830798C03054
:10653000C3E70798063300EB4310E9E7336805AF7C
:106540005A69FAB91020BCF015FE98B1079B326861
:1065500003F5FA73117E07931C4B99701C49097857
:10656000D970917900972A462068B9F0C5FC0028B7
:10657000D3D1D8E731683B462A4689792068B9F0FB
:10658000A5FCF4E71969ADF810000A4496211148FA
:10659000A2F59B7281809979CDE90007039220686A
:1065A0002A4603ABB9F0B3FCE1E700BFAFF30080CC
:1065B0000000000060E366410000000080842E417E
:1065C000F88501205485012020A10700B82702206A
:1065D00002340220AC270220F7B50120BCF0CAFD2E
:1065E0000446002840F0B5805D4D5E4B5E4EC5E927
:1065F000003005F11003AB6041F60B233060B3802F
:1066000012F02AFC594B1B6ADB0700D4FEE7214637
:10661000284669F091FE044600B9FEE76BF054FA93
:1066200000B1FEE7204652496AF08EFD00B1FEE758
:1066300002212046B9F012FE00B1FEE720464D4986
:106640006BF02AF800B1FEE701212046BAF031FADA
:1066500000B1FEE701212046BAF041FA074600B139
:10666000FEE701463C224448A5F03AFA80233A4628
:10667000204605F11401BAF089F8802800D0FEE721
:106680003E4D0120B9F01DFC33A3D3E900232C605B
:106690002046CDE900234FF0FF324FF0FF33B9F031
:1066A0009DFE014600B1FEE72F4811F061FF012178
:1066B0000846BCF04BFD01212868B9F0EFFC044608
:1066C00000B1FEE72E4B2F4A988018602E4B1A60BF
:1066D000FF2298802D4B83F828202D4A98801A603D
:1066E0002C4A6FF06300DA6018F010FD33790B2B41
:1066F00011D873790A2B0ED9274B1E600CF096F82F
:10670000204612F09BFB082228681146B9F080FE53
:10671000044608B1FEE7FEE712F088FB1F4B10218C
:106720001F481C7078F0A7FE00B9FEE71D491C4801
:1067300078F0B3FE00B9FEE710218C201A4A78F0F9
:1067400012F800B1FEE7194803B0BDE8F040A8F028
:10675000A9BF03B0F0BD00BF0AE020FFE2030000C4
:1067600064850120B9350C085C8501200080E00FAC
:1067700007001100307C0C0814850120548501208D
:1067800048150020330C022018150020E8140020C2
:10679000B30B0220D814002058850120B50C02202C
:1067A0000C860120036E0C08FC850120247C0C085B
:1067B0002DE9F04F2DED028B884204460D469046A0
:1067C0001E4697B00AD1034601211D202E4A17B05C
:1067D000BDEC028BBDE8F04F9DF0FDBE9FED288B18
:1067E0000DF10C092A21484605AF34F089F999E8E2
:1067F000030087E80300DFF894A0DFF894B0BDF849
:106800001620BDF814309A4204D117B0BDEC028BAB
:10681000BDE8F08F384634F04FF90AAB814696E870
:10682000030083E8030009AB08938DF824408DF83A
:1068300025508DF82680CDF81CA02BF01FFE0023DC
:106840000E938DF840308DF851302A23ADF83090FA
:106850004FF001090D930CAA6B4607A98DED128B21
:106860008DF850908FF07FFD034620B15A4649467F
:106870001D209DF0B0FE384694F0EDFFBFE700BF4D
:106880000000000000000000CCE20C08D8E30C0877
:106890000CE30C08000000002DE9F0472DED028B01
:1068A0009FED2B8B9CB00DF108082A21054604AC06
:1068B000404616461F4634F023F998E8030084E862
:1068C0000300DFF89480DFF89490BDF81220BDF843
:1068D00010309A4204D11CB0BDEC028BBDE8F087A9
:1068E000204634F0E9F826A931F8083B0DF1380CC0
:1068F0008246ADF830300FC98CE80F0008AB079323
:10690000CDE90A670895CDF818802BF0B7FD002374
:106910002A228DF858308DF869300223ADF848A04E
:106920004FF0010ACDE9132306A96B4612AA8DED9B
:10693000188B8DF868A08FF016FD034620B14A46EB
:1069400051461D209DF047FE204694F084FFBCE791
:10695000000000000000000000E40C0863E30C08E5
:106960002DE9F04F2DED028B083085B00F46914692
:10697000DDF850809DF052FE0446002800F09A8019
:106980006E4600259FED4E8B4FF0010B41F2A45A4D
:1069900010AB0FCB86E80F004B4BC4E902552360C8
:1069A000C4E90455C4E906552C336360474B04F130
:1069B000480C0FCB84ED0E8BC4E90C5584F82050A5
:1069C00084F840508CE80F00414B84F858B0A4F88C
:1069D0005AA0E56584ED188BA36604F17C03C4E935
:1069E0001F333C4B1022C4F890302946C4E91B5594
:1069F000C4E9255584F87450C4F88450C4F89C50F8
:106A000004F1A000A5F06CF884ED2E8B84F8B0B0F2
:106A1000A4F8B2A0C4F8B45004F1C0009EF0F1FA9A
:106A20004AF6C873C82284ED368B84ED388BC4E9EE
:106A30003A2304F58273C4E93E55C4E94133A4F80E
:106A4000CC5084F8CE50A4F8D05084F80051C4F84B
:106A50000C513B68A3607B68E360BB682361FB6803
:106A600063613B69A3617B69E3613B7E84F820300D
:106A700033B104F1240307F11C0207CA83E80700BD
:106A8000384684F04DFBA8B9B9F1000F12D0B8F127
:106A9000000F0FD003CE3378C4F8309084F8403024
:106AA000012384F8F830231DA063E163C4F88880D3
:106AB000C4F89C30204605B0BDEC028BBDE8F08FD9
:106AC000000000000000000074090D0884BC0120D3
:106AD000F8C80D0864090D082DE9F04F2DED028B63
:106AE00000240025CBB09946CDE92E450023CDE901
:106AF0003045CDE934454FF6FF74DFF898A20646DD
:106B000088461746CDE90C338DF8C8303393CDF85D
:106B1000D8A04894A2B3054600F53474A54206D126
:106B20000B2420464BB0BDEC028BBDE8F08F28460D
:106B300084F01BFC08B19035F0E79FED8F8BBDF81A
:106B40005C318DF8C880ADF820318D4B4FF4C871A1
:106B50000E93002309A8CDE909330F93CDF870A057
:106B60000B9389F050FA099C14BB0B240BA884F0FA
:106B7000B3F90AA884F0B0F909A884F0ADF9D0E718
:106B800097F05AF9044608B9AC24CAE706F53475FB
:106B9000284694F0A8FBB4F882308DF8C880ADF890
:106BA000203121460CA894ED028B97F0B2F8CCE787
:106BB0004FF4C8710AA889F026FADDF828A0BAF1C6
:106BC000000FD2D04FF4C8710BA889F01CFA0B9AB1
:106BD000002ACAD04FF4C8734146CDE9133230467B
:106BE00010AA1094CDE9113A159397F085F904464F
:106BF0000028BBD14146304612AA97F05FF90446FF
:106C00000028B3D14146304614AA97F034F904461F
:106C10000028ABD110A916A889F0EBF912A918A881
:106C200089F0E7F914A91AA889F0E3F936AB0793BC
:106C300030AB05930DF1B80A34ABCDE903A30DF1E8
:106C4000700B0EAB8DED008BCDF818B002931AAA25
:106C500018A916A838F05AFC0446002886D10BA8BB
:106C600084F03AF90AA884F037F909A884F034F9D5
:106C7000B9F1000F13D1D6F8640300285ED0036881
:106C80009B6898470346D6F86403002B4ED00368F0
:106C90005A4641465B699847044688B141E7D9F8AE
:106CA000003048465B699847594697F0F5FB08B9AC
:106CB000C52436E79DF85831CDF8CC908DF82231B7
:106CC0009DF860315146B3FA83F328465B098DF88D
:106CD000233197F065FB044600287FF422AF284655
:106CE0000CA997F05BF806F55D7495F881303FB319
:106CF00002211120234A9DF06EFCD5E900122B6978
:106D0000CDE9012100936B69022111201E4A9DF0FB
:106D100062FC20460F993AF0B3FB034630BB96F86D
:106D20008233013386F882330024FAE60368414651
:106D3000DB6898470028C3D11024F2E60324F0E66C
:106D4000D5E900121120CDE9002102210F4A9DF062
:106D500042FC20460F993AF093FB03460028E3D00B
:106D6000012111200A4A9DF036FCDDE701211120A6
:106D7000074A9DF030FCD2E7000000000000000050
:106D8000286A0D0853690D0873690D08B6690D0866
:106D9000EB690D0850980D082DE9F0478AB00DF108
:106DA0000D0301931523064600934FF480720023D0
:106DB00008460C469CF0FEFCE8B996F89230012299
:106DC0000093204600239CF07CFCA0B996F89330F9
:106DD00002220093204600239CF073FC58B90DF169
:106DE0000E030193162303220093204600239CF0F8
:106DF000E1FC054610B10AB0BDE8F0874FF010097C
:106E000006F1C8070DF11808102200214046A4F031
:106E100067FE0DF10F03019315234FF48072009369
:106E2000204600239CF0C6FC0028E4D196F893206D
:106E3000EBB29A4251D917ED0C7BC44637F828AC17
:106E4000A7F12603A7F1160E6246186859680833A1
:106E500003C273459446F7D18DED007B04220023D5
:106E600020469CF009FC0028C5D1052200232046BD
:106E7000CDF800A09CF025FC0028BCD14046494636
:106E800006228DE8030000232046CDE904899CF00A
:106E900064FD0028AFD120469DF90F109CF0BFFC87
:106EA000013530370028A6D1032DADD120469DF9FC
:106EB0000E109CF0B4FC00289DD1B6F88A30072251
:106EC0000093204600239CF0FCFB002893D1204631
:106ED0009DF90D109CF0A3FC8DE782469FED027B8F
:106EE000BAE700BFAFF30080000000000000000020
:106EF000054B18680368D96901A3D3E90023084743
:106F000000E0373B015D0300702C02200000000010
:106F10002DE9F04FC76997B08346209E08910C92E7
:106F2000129355EC104B8DED000B7FB910204EF0F5
:106F3000EBF90246CBF81C0020B9A74BEF21A7487C
:106F40004EF0F2F9C0E901770760C760DBF81C304A
:106F5000196859B15A680123584693404A608B60BA
:106F60004EF02AFCDBF81C3000221A602B1EB7BF43
:106F700023F00043002301220193A8BF3360019F47
:106F8000974BB8BF3260BB4319D142F20F73129ACC
:106F90001360C7F31303234300F0DB85219B53B930
:106FA000904B21E0904B03930833219A1360039890
:106FB00017B0BDE8F08F8B4B03930333F5E79DEDDE
:106FC000007B0022002351EC170B8DED0A7B4CF067
:106FD00039FF804650B10123129A1360219B13B1EF
:106FE000824B219A1360824B0393E0E7C7F30A5662
:106FF00014AA15A958469DED0A0B4EF065FE0290A5
:10700000002E76D00B9BA6F2FF36CDF84C80C3F352
:10701000130343F07F53DDE90A0143F4401319469B
:107020000022744B4CF0EEFA65A3D3E900234CF038
:10703000A1FC65A3D3E900234CF0E6FA04460D4613
:1070400030464CF02DFC62A3D3E900234CF092FCB7
:1070500002460B46204629464CF0D6FA04460D4619
:1070600073F014FB002207460023204629464CF00B
:10707000F3FE40B138464CF013FC22462B464CF050
:10708000E1FE00B9013F162F52D85B4B03EBC7035B
:10709000DDE90A01D3E900234CF0DEFE002849D0E7
:1070A000013F00231193149B9B1B5A1E4CBFC3F13D
:1070B00001030023079245BF06930023069307931D
:1070C000002F39DB079B10973B440793002309935C
:1070D000089B092B66D8052BC5BF043B002401245F
:1070E0000893089B023B032B67D8DFE803F02D3A97
:1070F0003859DDE914631E4406F23243202BC9BF20
:10710000C3F14003C3F120039F4006F21243D8BFEE
:1071100004FA03F006F1FF36C4BF24FA03F347EA8A
:1071200003004CF0ADFB0122A1F1F873139276E756
:107130000123B7E71190B6E7069BDB1B06937B4262
:10714000099300231093C3E700230D930C9B002B9E
:1071500056DC012399461A4604930C920CE0012355
:10716000F3E700230D930C9BFB1803F10109049333
:107170004B46012BB8BF0123DBF81C000021042281
:1071800002F114059D423FD9416058464EF0D4FAB1
:10719000039000283BD1194B024640F2AF11CEE6D6
:1071A0000123DFE7012400230D9408934FF0FF3300
:1071B0000022994604931223CFE701230D93F5E7AC
:1071C00061436F63A787D23FB3C8608B288AC63FED
:1071D000FB799F501344D33F3DDB0D0826DD0D089E
:1071E0000000F07F22DD0D0819DD0D08ACCC0C0885
:1071F000ABCC0C080000F83FF8DB0D08AEDB0D0847
:107200000C9B99460493B7E701315200B8E7DBF8CD
:107210001C30B9F10E0F039A1A606FD8002C6DD094
:10722000002F36DD07F00F02A04BF8054FEA2714B8
:1072300003EBC20393ED007B8DED0E7B17D59C4BCA
:1072400004F00F044FF00308D3E90823DDE90A0135
:107250004CF0BAFCCDE90001954D5CB9DDE90E2397
:10726000DDE900014CF0B0FCCDE900012BE04FF06E
:107270000208F1E7E10709D508F10108DDE90E018F
:10728000D5E900234CF076FBCDE90E0164100835FA
:10729000E3E700F007817C42844B854D4FF0020804
:1072A00004F00F02241103EBC203DDE90A01D3E964
:1072B00000234CF05FFB0023CDE90001002C40F0DF
:1072C000E580002BD0D1119BDDE90045002B00F0BB
:1072D0004C810022774B204629464CF0BDFD00280A
:1072E00000F04381B9F1000F00F03F81049B002BB7
:1072F00000F3E480DDE90A34CDE90034159B002B6E
:1073000002DB0E2F40F342820D9A002A40F0678282
:10731000099C0025DDF81880B8F1000F0DD0079BFF
:10732000002B0ADD4345069AA8BF4346D21AA8EBB4
:1073300003080692079AD31A0793099B0BB30D9B78
:10734000002B00F0A682002C00F0A18229462246E4
:1073500058464EF05BFB029A0146054658464EF0F1
:10736000ABFA0299064658464EF026FA099B1B1BBB
:10737000099300F09182099A314658464EF046FB37
:107380000290012158464EF081FA109B0446002BD2
:1073900000F084821A46014658464EF037FB089B9F
:1073A0000446012B03DC009B002B00F07C820026AE
:1073B000236904EB83031869A4F03DFAC0F12000AF
:1073C0001096079B184410F01F0000F09182C0F146
:1073D0002003042B40F38182C0F11C00069B034470
:1073E00080440693079B03440793069B002B05DD0F
:1073F0001A46029958464EF063FB0290079B002BF9
:1074000005DD21461A4658464EF05AFB0446119BAC
:10741000002B00F0768221460298A4F05BFA002847
:1074200080F26F8200230A22029958464EF0E6F954
:107430000D9B7E1E0290002B00F05C8200232946EB
:107440000A2258464EF0DAF9049B0546002B03DC6D
:10745000089B022B00F35E82B8F1000F05DD294680
:10746000424658464EF02CFB0546109B002B00F080
:10747000D082696858464EF05FF90746002840F010
:107480007F820D4B024640F2EF2158E5E20706D518
:1074900008F10108D5E900234CF06CFA01236410CF
:1074A00008350BE74FF002080DE700BFF8DB0D08C9
:1074B000D0DB0D080000F03FAEDB0D0820460022B7
:1074C000AC4B29464CF056FA7E1E08F10108049C8C
:1074D000CDE9000140464CF0E3F9DDE900234CF032
:1074E00049FAA54B00224CF08FF8A1F15073CDE979
:1074F0000E010F93002C3BD10022A04BDDE90001CF
:107500004CF080F802460B46CDE90023DDE90E235E
:107510004CF0C0FC002840F05781DDE90E2101F15C
:107520000043DDE900014CF097FC00283FF4E2AE97
:10753000002425460C9BDDF80CA0DE434FF000082C
:10754000214658464EF038F9002D00F0A980B8F1D8
:10755000000F05D0A84503D0414658464EF02CF9FF
:10756000294658464EF028F99AE03E464C46B1E787
:10757000834B03EBC40353E90201039B1C440D9BA3
:10758000002B4AD002460B4600207E494CF01CFBE3
:10759000DDE90E234CF036F8DDF80CA0CDE90E0144
:1075A000DDE9000173F072F805464CF079F9024606
:1075B00030350B46DDE900014CF024F80AF8015B98
:1075C00002460B46CDE90001DDE90E014CF062FCFC
:1075D000002865D100206C49DDE900234CF012F849
:1075E00002460B46DDE90E014CF054FC002840F049
:1075F0000D81A24500F0EA8000225E4BDDE90E011C
:107600004CF0B8F900225B4BCDE90E01DDE9000139
:107610004CF0B0F9CDE90001C2E7DDE90E234CF0F2
:10762000A9F9A046DDF80CA0CDE90E01DDE90001C5
:1076300073F02CF805464CF033F9024630350B4612
:10764000DDE900014BF0DEFF0AF8015B02460B4664
:10765000A245CDE900234FF0000223D1494BDDE9DB
:107660000E014BF0D1FF02460B46DDE900014CF064
:1076700011FC002840F0CA8000204249DDE90E23B9
:107680004BF0C0FF02460B46DDE900014CF0E4FB85
:1076900070B1C24608F1FF381AF8013C302BF8D01F
:1076A000374655E0334B4CF065F9CDE90001BDE7B5
:1076B000DDE90A34CDE90034159B002BFFF628AE36
:1076C0000E2F3FF725AE2E4B03EBC70393ED007B48
:1076D0000C9B002B8DED047B02DAB9F1000F64D016
:1076E000DDF80CA0DDE90045DDE90423204629464C
:1076F0004CF06AFA72F0CAFF06464CF0D1F8DDE9A8
:1077000004234CF037F90246204606F130040B46BC
:1077100029464BF077FF0AF8014B039C02460B46C3
:10772000AAEB0404A14540F082804BF06DFF0446B3
:107730000D46DDE904234CF0ADFB002865D1204661
:107740002946DDE904234CF07DFB08B1F3075CD446
:10775000029958464EF030F8002301378AF800307D
:10776000129B1F60219B002B3FF421ACC3F800A0AB
:107770001DE400BF0000244000001C400000144035
:10778000F8DB0D080000E03F0000F03FA24B03EBE8
:10779000C70393ED007B0C9B002B8DED047B9FDAE0
:1077A000B9F1000F9CDC7FF4C3AE00229B4BDDE9F6
:1077B00004014CF0DFF8DDE900234CF061FB0446E6
:1077C00000287FF4B5AE3E462546B4E0DDE90A3434
:1077D000CDE90034159B002B01DB0E2FD6DD089A76
:1077E000012A36DC139A82B303F23343099CDDF895
:1077F0001880069A012158461A440692079A1A449C
:1078000007924EF043F8054686E53E4653469A46B3
:1078100013F8012D392A06D1039A9A42F7D1302262
:10782000039901360A701A7801321A7038E700227B
:107830007B4B4CF09FF80022002304460D464CF091
:1078400001FB00283FF450AF82E7149BC3F13603DD
:10785000CCE709F1FF34099BA34208DBB9F1000F23
:10786000A3EB04040EDBDDF818804B46C1E7099B4F
:10787000109AE31A0994DDF8188000241A444B4644
:107880001092B6E7069BA3EB09080023B1E7029E1E
:1078900071E5099A029970E5029672E5089B012B41
:1078A00017DC009BABB9019BC3F313039BB9019B8E
:1078B00023F00046360D360536B1069B012601330E
:1078C0000693079B01330793109B002B7FF470AD49
:1078D0001096012075E50026F6E73FF486AD1C33CF
:1078E000069A1A4498440692079A1A4407927CE52D
:1078F0000346F4E7049B002B2BDC089B022B09DCDE
:1079000027E0B9F1000F1DDC089B022B1ADD3E4673
:10791000CDF81090049B002B7FF40CAE214605227D
:1079200058464DF06BFF014604460298A3F0D2FF83
:1079300000287FF7FFADDDF80CA0312301360AF8EF
:10794000013BFBE50D9B3E46CDF81090002B7FF4EC
:1079500083AD039F21460298A3F0D7FF039B00F15C
:107960003009049A07F8019BFB1A9A4240F3CB8036
:1079700000230A22029958464DF040FF0290E9E7A1
:107980002A6905F10C010C3002329200A3F061FE6D
:107990000122394658464EF093F8039BA846054607
:1079A00003F1010ADDE9032313440793009B03F06D
:1079B000010309930AF1FF33214602980493A3F0CF
:1079C000A4FF4146069000F130090298A3F082FF1F
:1079D0002A462146074658464EF0DEF8C268014660
:1079E00002B358464DF0E8FE002F3ADA0122029920
:1079F00058464EF065F821460290A3F06BFF002830
:107A000003DC29D119F0010F26D0B9F1390F1DD1AE
:107A100032E02846C1E700BFF8DB0D080000144043
:107A2000000024400A900298A3F054FF0A990C9099
:107A300058464DF0C1FE0C9A5ABB089B53B9099B9E
:107A400043B9B9F1390F17D0002F05DD069B03F1BB
:107A5000310901E0002F2ADADDF810A00AF8019BB5
:107A60006EE5089B3B4304D1009B03F00103002B10
:107A7000BCD0B9F1390F36D1049F392307F8013B47
:107A8000BA46013F1AF8013C392B5AD001333B70FA
:107A900056E5002F06DB089B3B4306D1009B03F015
:107AA000010313B9002AA1DCD6E7002AE1DC079B19
:107AB00057460AF8019C53452ED000230A2202990A
:107AC00058464DF09BFEA84502904FF000034FF042
:107AD0000A02414658460BD14DF090FE80460546BD
:107AE0000AF1010A66E7DDF810A009F10109B5E71E
:107AF0004DF084FE2946804600230A2258464DF068
:107B00007DFE0546ECE7049B4FF00008002BCCBF40
:107B10001F460127039B1F440122029958464DF03E
:107B2000CFFF21460290A3F0D5FE0028A8DC02D1A9
:107B300019F0010FA4D1BA4617F8013D302BFAD045
:107B4000FEE4039BBB429BD13123039A01361370A1
:107B5000F6E4219B002B7FF425AA014BFFF744BAE2
:107B600019DD0D0800000000002370B5424C0546E9
:107B70008AB0E36318B10088236053F0CFFF54F05C
:107B80003DF93E48B8F026FB3D4E3E4B3046336053
:107B90003D4B73604FF02CFB0021304668F0CCFB6E
:107BA00033A3D3E90023A062C4E90623A7F0ADFA0A
:107BB000D4E9062319431043C4E90601CDE90001C5
:107BC0004FF0FF334FF0FF32A06AB8F007FC0222FB
:107BD0004FF0FF31A06AB8F01BFC012053F022FDEA
:107BE0004FF4007300222949A06AB8F0CFFDB0F528
:107BF000007F39D100239422079309933C23CDE9D8
:107C000003320593962306935023A06A03A9089391
:107C100069F01CF835B3287C54F002F90546F0B938
:107C2000A06AB8F0A4FF54F089F953F0DDFC20B14C
:107C30004FF48070002151F021FD53F0E5FC20B19C
:107C40004FF40060002151F019FDA7F026FB012040
:107C5000B8F037F90E4A0F49A06AA7F04AFA284649
:107C60000AB070BDFF20D7E70725F8E7AFF3008023
:107C70000DD5015520000000E0020120690345EC0C
:107C8000140202205DB40508240202201400022020
:107C90009BF00A08DBF00A080348044B834202D039
:107CA000034B03B1184770473035022030350220AE
:107CB00000000000064B0749C91A891048BF01316E
:107CC000491003D0044B0BB101481847704700BF5F
:107CD00030350220303502200000000010B5064C7F
:107CE000237843B9FFF7D8FF044B13B10448AFF32F
:107CF00000800123237010BD600A022000000000F4
:107D000058420E0808B5054B1BB105490548AFF3AD
:107D10000080BDE80840FFF7CDBF00BF00000000B5
:107D20005051012058420E08A3F5803A704700BF19
:107D3000174B002B08BF134B9D46FFF7F5FF0021A3
:107D40008B460F461348144A121AA3F0C9FE0E4B75
:107D5000002B00D098470D4B002B00D098470020F7
:107D6000002104000D000D48002802D00C48AFF39C
:107D700000804CF04DFB2000290005F0B3FF4CF0D3
:107D8000A9FA00BF00000800000000000000000089
:107D900008120020081200208024022000000000A9
:107DA0000000000008B50B490B4873F0A0FB01214F
:107DB000162073F04FFC4FF47A7073F01AFC162003
:107DC000002173F047FCBDE808404FF47A7073F06F
:107DD00010BC00BF88720C08F452012008B50121C4
:107DE000162073F02BFCBDE808404FF416510148F3
:107DF00073F0FBB9F45201200023024619460148F2
:107E00000AF0A2BA00C0055010B500240E4B186845
:107E100073F096F90D4B0122C3F820470421C3F8F3
:107E200038470220C3F83047C3F82847C3F82C4727
:107E300023460AF0C1F82346BDE81040012205217F
:107E400002200AF0B9B800BF7051012000C00350F1
:107E500002460021014809F01FBF00BF0000015B7E
:107E600010B500240E4B186873F06AF90D4B2046CC
:107E7000C3F894440122C3F8AC440421C3F8A444D9
:107E8000C3F89C44C3F8A04423460AF095F823465F
:107E90002046BDE81040012205210AF08DB800BF40
:107EA0006851012000C00350084B1A68084B1A6043
:107EB000084B1A68084B1A60084B1A68084B1A607E
:107EC000084B1A68084B1A60704700BF0828022048
:107ED000745101201828022070510120F42702203B
:107EE0006C51012004280220685101200348044BF2
:107EF000044A05490360A2F00BBF00BF785101207E
:107F0000A0720C085C2602205FB107084B88042B86
:107F100007D1836C08885B8998428CBF00200120C0
:107F200070470020704720B9064B1B6833B91846CC
:107F300007E00368002BF7D05B68F7E7986C002830
:107F4000FAD070470812002068B13F290AD800EB28
:107F5000A10090F8310001F003014900084100F050
:107F60000300704700207047037A23B1013B012BC7
:107F700006D900207047C3681888023080B2704765
:107F8000C36858880630F9E70E4B10B55968CC071E
:107F900014D4DA8A9C8A944210D949071C6948BFD4
:107FA000996A24F81200DA8A4ABFC88910468018F4
:107FB00002F1010248BF80B2DA8210BD4FF6FF70B5
:107FC000FBE700BF0812002070B5124C0146636841
:107FD00013F0040305D00022A56AEB8990B2834216
:107FE00008D80022E46AE58990B2854209D84FF6A4
:107FF000FF7005E0AE6836F8126001328E42EDD1B6
:1080000070BDA66836F8126001328E42ECD103448E
:1080100098B2F5E708120020084B5A68520709D5B4
:10802000996ACA89824203D98B6833F81000704775
:10803000801A80B2DB6A9B68F7E700BF0812002055
:1080400010B50446FFF7C0FF4FF6FF73984203D107
:108050002046BDE8104097E710BD0D4AF0B5014637
:10806000D4899068002300EB041006460B27158E78
:1080700005EB030C01339BB28B42A6F800C077726C
:1080800006F11006F4D30D440C441586D481F0BDDE
:1080900008120020437ADA0702D5C3F38000704744
:1080A000034BC2885B8E1A4214BF01200020704728
:1080B00008120020094B5A68D20707D560B1DB6A65
:1080C000DB88834234BF00200120704720B11B8E23
:1080D000834294BF00200120704700BF0812002097
:1080E00070B50146FFF7E6FFE8B10F4BDA6AD588B5
:1080F0008D4209D301F1805013680138040103EB6C
:1081000000101B5B8B420ED0002398B2854201D831
:10811000002008E016681C01345B06EB03108C425B
:1081200003F10103F1D170BD0812002008B5FFF77B
:10813000D7FF08B1FFF7AEFFC0B208BD08B5FFF723
:10814000CFFF18B1007AC31F5842584108BD88427A
:1081500070B504460D46164611D8012838BF0124D3
:108160002046FFF7BDFF10B14388B34208D0013469
:10817000A4B22046FFF79EFF20B1A542F0D2002412
:10818000204670BD0446FBE74B88052B05D10888C7
:108190000E288CBF0020012070470020704700206F
:1081A0007047002070477047054A0346106800B9C1
:1081B0007047B0F86E209A42FAD04068F7E700BFE7
:1081C00008120020054A0346106800B9704790F86D
:1081D00070209A42FAD04068F7E700BF08120020EA
:1081E000034B93F83420034B53F82230184700BF59
:1081F00008120020B8720C0810B5044650B90120CE
:10820000FFF7EEFF0122044B204683F83420BDE83F
:108210001040E5E710BD00BF0812002010B5411D59
:10822000441E002014F8013F5A0802F055029B1A20
:1082300003F03302C3F3850303F03303134403EB6A
:10824000131303F00F03A1421844EBD110BD704784
:108250007047704770477047704770477047704766
:1082600070477047084A034692F88210814209D944
:10827000906D40B103EBC30300EBC300406A00F014
:1082800001007047002070470812002038B50446EE
:108290000D46FFF7E7FF034640B10020044B04EB17
:1082A000C4049B6D03EBC4032B6038BD2120FBE7A6
:1082B0000812002037B5044648B104782046FFF77D
:1082C000D1FF10B9002003B030BD0134E4B2074D36
:1082D00095F88230A342F5D9204601A9FFF7D6FFD1
:1082E00008B90198EFE70134E4B2F1E70812002081
:1082F00000207047030400D48EE600207047013050
:108300002DE9F04185B228460E46FFF7E9FE42F618
:108310000217044642F603081CB12046FFF7BAFED6
:1083200010B94FF0FF3008E06088FFF7E3FFB84274
:1083300005D10EB123883380607BBDE8F0814045D4
:10834000EFD00135ADB22846FFF7CAFE0446E3E799
:108350002DE9F04707460E4690460D4642F60219B3
:1083600042F6030A0135ADB22846FFF7B9FE0446CE
:1083700078B1FFF78FFE60B16088FFF7BBFF48451B
:1083800005D1237A072B04D10320BDE8F08750459F
:10839000E8D141463046FFF7B2FF431C014603D007
:1083A0003846BDE8F047CFE50020EEE72DE9F04183
:1083B0000E46154642F603080130A2F5205784B256
:1083C000BFB22046FFF78CFE18B9013CA0B2BDE851
:1083D000F0814088FFF78EFF45450CD1A842F4D0CC
:1083E0000134A4B22046FFF765FE08B1B442E8D9D3
:1083F0004FF6FF70EBE7012FF2D8A0F5205080B2C6
:108400000128EDD8E1E708B5FFF774FFA0F520508B
:1084100080B201288CBF0020012008BD90F8743084
:10842000DB0706D490F97530013314BF0F20052007
:1084300070470020704770B5054608461446FFF7A0
:108440004FFE0146002859D0FFF724FE002855D0E2
:10845000E60710D58A88D00752D512F0700F02F0C7
:1084600020062DD1002E30D1560604D52B6893F965
:108470007530013348D0A00702D58B889A0741D5C3
:10848000630702D58B885E073CD514F0060F0DD02C
:108490008A8812F4E06F02F4007620D12EBB5305D7
:1084A00004D52B6893F9753001332DD014F4006096
:1084B00014D08B8813F4006F14BF002006200DE049
:1084C0002868FFF7ABFF3EB140B92B6893F87430D2
:1084D0009B07C9D4052001E00028C5D070BD2868DD
:1084E000FFF79CFF3EB10028F8D12B6893F8743059
:1084F0009807D4D4EEE70028F0D1D0E70120EDE7CB
:108500000220EBE70320E9E70820E7E72DE9F34144
:10851000D0F80160D0F80550B0F8097090F80B80E1
:1085200001A90078FFF7B2FE0446E8B9019B5A6A38
:1085300091050BD44FF6DF71A6F1200088421AD8BE
:10854000A5F12000884216D8AE4214D8D9698E42CF
:1085500002D1196A8D4204D0C3E9076542F00202D4
:108560005A6283F830809F85044854F047F984802C
:1085700002B0BDE8F0812124F6E700BF2002040329
:1085800013B5007801A9FFF781FE0446B8B9019A36
:10859000536A13F0100418D1590410D50C4923F470
:1085A0008043D1F8670043F00803C2F80100B1F836
:1085B0006B0091F86D10A2F80500D1715362054867
:1085C00054F01CF9848002B010BD0224F7E700BF0C
:1085D000081200202002041110B50C4601041BD51E
:1085E000114BC0F30E005A68520712D5996ACA8A15
:1085F00090420CD20B6903EB001000F1100350F80D
:10860000042B984244F8042BF9D1102010BD801A95
:1086100080B2DB6A1B69EEE7FFF7FEFC2070000A00
:1086200060700220F2E700BF0812002070B5164605
:1086300000221A7032800A7A0D46072A56D8DFE8DF
:1086400002F0040A0E121A1E3353EC6834F8022B9F
:108650003280204670BDEA68941D5288F8E7EA68C7
:10866000941D9288F4E7697BFFF76EFC204C022290
:1086700024F8A80FECE702231E4C3380E9E71C4CDA
:108680002B7B04F1AD0184F8AA302B88E8890133F3
:1086900084F8AB302B88AA3401331B12A370FFF788
:1086A0009BFF03303080D4E7114CA889EB89020A84
:1086B00084F8BF301B0A84F8BD0084F8BE2084F81B
:1086C000C030FFF70DFD68B1C3681A88022A09D1CE
:1086D0009A7884F8C120DB7884F8C2300623064CEF
:1086E0003380B6E70423FAE780221A700024B0E74B
:1086F00008120020C0720C08C51200200B68FF2A67
:1087000003608B88838002D1072383717047032A1B
:108710000AD8064B1A44D27A072A8271F6D14279D6
:1087200003EB9213DB7BF0E70023EEE7B8720C0853
:1087300037B5044668464A790D460631FFF7DEFF35
:1087400003C8A4F85010090C11F0800FE06484F8FD
:10875000521004F1530312D00122184605F1120100
:10876000FFF7CCFF0C352846FFF758FD80B10122FA
:10877000294604F15A0003B0BDE83040BEE7B4F822
:10878000501094F85220C4F8530099809A71E9E788
:1087900003B030BD8378132B02D10846B8F0A0BFD8
:1087A000704770B506460D4614467AB90A4620460B
:1087B0000821B9F03FF9044690B92A46082129203A
:1087C000B9F038F9044658B9204670BD1046B8F0E3
:1087D00087FF2046B9F0B4F808231D44A371E57162
:1087E000A3790C331C442670EEE72DE9F0411646C0
:1087F000069A074688461D46FFF7D3FF0446F0B1A8
:1088000014382A4631460690B9F051F9854217D9F5
:10881000069B06A81C7904F02004B8F061FF74B927
:10882000424608212920B9F005F92A46314606902A
:10883000B9F03DF9854206D906A8B8F051FF0024E9
:108840002046BDE8F081069A93790C33D418D754AA
:10885000F6E71FB550F80C4BADF80A3094F87040AD
:10886000069BADF806108DF8082040F2035101AACE
:108870008DF804400393B8F068FE10B906A8B8F06C
:108880002FFF04B010BD1FB550F80C4BADF80A30E7
:1088900094F87040BDF81830ADF806108DF8082037
:1088A00040F2045101AA8DF80440ADF80C30B8F044
:1088B0004CFE04B010BD1FB590F8703040F20311AB
:1088C0008DF8043090F8743003F00B03013BDBB2F9
:1088D0000A2B8FBF00230C4A9B18DB7C01AA8DF862
:1088E0000C30B0F86230ADF80630B0F86430ADF856
:1088F0000A30B0F866300548ADF80830B8F025FE0B
:1089000005B05DF804FB00BFB8720C08CC12002063
:1089100007B5837801916A46082104488DF8003034
:10892000B8F013FE03B05DF804FB00BFCC120020CA
:108930001FB590F87420044602F0010301908DF8F1
:1089400008300BB102F002038DF8093094F875304D
:10895000039101AA4FF4017120468DF80A30B8F056
:10896000F4FD2046FFF7A7FF04B010BDF8B5214C79
:108970000746B4F8CC60B4F8CE30F31A834221DA5B
:10898000B0F5FA7F2CBF361806F5FA76B6B2304647
:1089900072F076FB0546E8B1D4F8C810B4F8CE20E2
:1089A000A2F057FED4F8C800A368E189A5EB000C3B
:1089B00003EB01118B420FD1B9F002F9C4F8C85092
:1089C000A4F8CC60B4F8CE30D4F8C8501D443B4471
:1089D000A4F8CE302846F8BD5A7A920704D51A7A00
:1089E00022B1013A012A01D91033E3E7DA6862447F
:1089F000DA60F9E7081200202DE9F041254C88469D
:108A0000A58AE38A1646EB1A834213DA0A35ADB219
:108A1000680072F035FB074610B90020BDE8F08110
:108A2000E28A21695200A2F014FE2069B9F0C8F868
:108A30002761A582A58BE38BEB1A434511DA0A3532
:108A4000ADB2280172F01CFB07460028E5D0E28B8E
:108A5000A1691201A2F0FDFDA069B9F0B1F8A7610A
:108A6000A583A589E389EB1AB34211DA1435ADB2B7
:108A7000280172F005FB06460028CED0E289A168E5
:108A80001201A2F0E6FDA068B9F09AF8A660A581EF
:108A90000120C3E70812002010B50F4CD4F8C8001D
:108AA00030B1B9F08DF80023C4F8C830A4F8CC3048
:108AB000A06818B1B9F084F80023A360206918B148
:108AC000B9F07EF800232361A06918B1B9F078F8F5
:108AD0000023A36110BD00BF0812002038B5046850
:108AE00005460C2220460849A2F0D0FF50B90222C8
:108AF000064904F10E00A2F0C9FF18B902200C3497
:108B00002C6038BD1020FCE7D6720C08E4720C080B
:108B10002DE9F743102801910BD0022804D04FF61D
:108B2000FF7003B0BDE8F083019B1888FFF74CFA93
:108B3000F7E701A8FFF7D2FF0228F5D01028EED101
:108B4000DFF86C80019FD8F8046016F0040607D0A7
:108B50000024D8F82890B9F81660A5B2AE4219D80A
:108B60000025D8F82C80B8F81690ACB24C45D6D277
:108B7000D8F81000102200EB05103946A2F086FF4D
:108B800001350028F1D1A0196FEA40406FEA50404A
:108B900080B2C6E7D9F81000102200EB0410394665
:108BA000A2F074FF01340028D7D145F40040B8E7A3
:108BB0000812002007B5ADF8040001A90220FFF754
:108BC000A7FF4FF6FF718842024605D0012003B08F
:108BD0005DF804EBFFF7BBBA002003B05DF804FBBF
:108BE0002DE9F0474FF00009044683F8009008464D
:108BF000A2F80090884616461D46FFF771FA074610
:108C000018B1A4B1FFF746FA20B9012300202B7058
:108C1000BDE8F08742F62930FFF7CCFF804506D14A
:108C2000012385F8009004F120003380F0E72B4603
:108C3000324639462046BDE8F047F7E410B50D4905
:108C4000837991F86D400C4A04F0070403F00703A0
:108C50001344224493F82E4092F82E309C4207D1C0
:108C600006226731A2F012FFB0FA80F0400910BD71
:108C70000020FCE708120020B8720C08F8B51C4E62
:108C8000044632460D4652F8D03F63B393F87D1048
:108C9000586811F0040128D110608C22184693F80E
:108CA0007070A2F01DFF034680F870702268C0F853
:108CB0005A20A288A0F85E20A27980F86020286857
:108CC000D864AA79A98883F85220FF2283F87520F6
:108CD00083F8762040F6FF72A3F86E203268A3F87E
:108CE00050105A6033601846F8BD1A1D0346CCE791
:108CF0000812002038B505464FF4FA7072F0C0F93A
:108D0000144CC4F8C800E0B14FF4FA7320220021DB
:108D100004F10800C4F8CC30A2F0E2FE280172F0A1
:108D2000AFF9A060142072F0ABF92061A02072F0BE
:108D3000A7F9A368A06113B1236903B118B9FFF7BC
:108D4000ABFE002038BD0A23A581A382A38304F1D2
:108D50000800F7E7081200202DE9FF414578044696
:108D6000FE2D6DD10025D0F80200E3880290ADF809
:108D70000C30464B1D4495F83620D1068DF80E2058
:108D800009D59DF80D1003EB9113DB7B93421CBFBB
:108D900000238DF80E304FF0FF339DF80E10009336
:108DA000ADF80430CB0609D53F2353298DF80530A3
:108DB00002BF0023ADF800308DF80230002302AF6F
:108DC000EE4618461E463D461EF8012B17F801CB0D
:108DD000013602EA0C08062E22EA0C0240EA0800DC
:108DE00043EA0203F0D1002845D0002B43D011F014
:108DF000180F40D020786946FFF748FA044698B922
:108E0000009A536A13F0100437D1029823F40043F8
:108E1000A979C2F8010043F48043A88843F008030D
:108E2000A2F80500D1715362194853F0E7FC0346DC
:108E30008480BDF80C2002985A81C3F806000CE02B
:108E400075B9134853F0DAFC212345710371D4F846
:108E50000230C0F80630E388438104B0BDE8F081F9
:108E6000022D0CD0D0F80200E388052D0290ADF859
:108E70000C307FF67EAF212402E00224D4E70F24D9
:108E800000230293CDF80B30CEE700BFB8720C0878
:108E90002008041070B50446084BDB6ADA881D68A8
:108EA00005EB021526461034AC4204D06088FFF76B
:108EB000AAFA0028F6D0304670BD00BF0812002084
:108EC00008B550F00DF983790C33184408BD08B586
:108ED000FFF7F6FF407940F4805008BD38B50C46E6
:108EE000054650F0F7F84379C47523F0030343F0C7
:108EF0000303437109230C348371C471A0F8155026
:108F0000153038BDF8B507460E4642F213000E2163
:108F100015461C46FFF7E2FFB7F86E30A0F8056073
:108F2000A0F80330BDF81830A0F80750A0F80B30B7
:108F3000BDF81C30A0F80940A0F80D30BDF8203075
:108F4000A0F80F30064850F0EDF8FFF7B9FF807831
:108F500020B1FFF7B5FF807840F48050F8BD00BF26
:108F60005DDE0A0838B590F872300446032B0D46D2
:108F70000CD1002142F20E00FFF7B0FF114850F073
:108F8000D1F80123002084F8723018E0012B17D9A2
:108F9000032140F20640FFF7A1FFB4F86E3045719F
:108FA000A0F80330084850F0BDF8FFF789FF837838
:108FB000002BE6D0FFF784FF807840F4805038BD66
:108FC0000220FCE7D1DE0A08E5DD0A0810B50078CA
:108FD000FFF7F8F840B11321FFF7C4FF0446034838
:108FE00053F00CFC848010BD2524F8E72002060510
:108FF000F8B5002305460127204E346886F8D8309E
:10900000002C38D094F872305DB301251C4E1D4FF2
:10901000032B0AD1002142F20E00FFF75FFF384612
:1090200050F080F884F8725000E023B9646814B3FB
:1090300094F87230ECE702214FF60440FFF74EFF40
:10904000B4F86E30A0F80330304650F06BF8FFF7FC
:1090500037FF4379002BE5D0FFF732FFE6E794F8BE
:1090600072304BB12046132186F8D870FFF77AFF93
:109070006468002CF3D1F8BD6468C1E708120020D1
:109080001BDE0A08D1DE0A082DE9F04F0446504ADB
:109090008BB0D06B116C07AB03C3506C0AAA18607D
:1090A000E37B94F82E7002EB430333F80C5C636AA5
:1090B00094F82F60DA047AD40126374645F010057B
:1090C000C3F3404B5B0394F8313048BF4BF0020BC5
:1090D0000193A37B012F83F00803C3F3C003029322
:1090E00004F10803039394F9323094F800A0ADB270
:1090F0000493D4E9079805D0022F03D0042F14BF9E
:1091000000270327012E05D0022E03D0042E14BF02
:1091100000260326504606A9FFF7B8F8002854D1C8
:10912000069B5B6AC3F3C023192142F23600059304
:10913000FFF7D4FE4FEA1921C1714FEA182181725D
:1091400001210022019B80F806900373029B80F8A6
:1091500009804FEA19494FEA1848837380F803A041
:10916000858080F8089080F80B804173A168039B8C
:10917000C0F80F109988049BA0F813108375059B05
:109180000276C37680F815B0C775467680F81AA0C7
:1091900010484FF0C7FFFFF793FE407920B1FFF76B
:1091A0008FFE407940F480500BB0BDE8F08FA26A8A
:1091B000900648BF45F02005510648BF45F04005E0
:1091C000DA0348BF45F004057AE70023ACE700BFA7
:1091D000B8720C08F191050838B50023154991F8CB
:1091E0008240886DA34202DBFF251A2419E0426AFF
:1091F000D5071CD490F839506D0718D4DDB203465A
:1092000003F8015BD1F867100B4CC0F80110A1887E
:1092100042F009029980A17999714262FFF734FF07
:109220000446064853F0EAFA8480857138BD01335C
:109230004830D7E7081200206F12002020030401F5
:10924000F8B506460F4642F23900062114461D467F
:10925000FFF744FE01238471240A0371C77046712D
:10926000C471057205484FF05DFFFFF729FE407994
:1092700010B1BDE8F8402AE6F8BD00BFDDDC0A0801
:1092800038B5204DEB6D5A0721D595F8832005F1AF
:10929000600305F16704012A08BF1C46A379062173
:1092A0001B071AD54FF62840FFF718FE2368C0F8B1
:1092B0000330A388A0F8073013484FF033FFFFF7BF
:1092C000FFFD437923B9EB6D23F00403EB6538BD53
:1092D000FFF7FDFD0028FAD1F5E742F20500FFF7A0
:1092E000FDFD2368C0F80330A388A0F807300748C5
:1092F0004FF018FFFFF7E4FD4379002BE3D0FFF7B1
:10930000E6FDE7E7081200208D910508AFDB0A08AB
:10931000F7B5074608460C46B8F04EFA06464FF039
:10932000D9FE4279234622F0030242F00302427141
:1093300041F20902043600F11505A0F81570C67552
:109340000190C28033B901A82146B8F040FA2846FE
:1093500003B0F0BD5A7922F0030242F002025A71C2
:109360001B68EFE710B5044642F23700FFF7D0FF65
:10937000032303710023C4704371837105484FF0C8
:10938000D1FEFFF79DFD407910B1BDE810409EE58C
:1093900010BD00BF45DC0A0810B5044642F2380093
:1093A000FFF7B6FF032303710023C4704371837179
:1093B00005484FF0B7FEFFF783FD407910B1BDE8D7
:1093C000104084E510BD00BF91DC0A08436A70B507
:1093D0005A07044605D5002300781A461946FFF7B8
:1093E0002FFF636A9B0706D52046FFF74DFE636A91
:1093F00023F002036362636A1E074ED5E6790521F6
:1094000016F0080625782FD04FF61940FFF766FDB5
:109410000023012243718371C3710271C5704648F4
:109420004FF080FEFFF74CFD4379C3B9072142F2AC
:109430003500FFF753FDC570D4F801304360B4F830
:10944000053003813D484FF06DFEFFF739FD43794C
:10945000FBB1FFF735FD407940F4805003E0FFF7A2
:1094600036FD0028E2D070BD4FF61A40FFF736FDFA
:109470000123C570037146718671C67130484FF083
:1094800051FEFFF71DFD4379002BCFD0FFF71FFDE5
:10949000E7E7636A23F008036362636ADD0601D4C9
:1094A0000020E0E713F480551DD0616A4807F7D526
:1094B000E37BA28D012B04D1002A3BD0802A28BF58
:1094C000802211F0400F94F830304FF0010118BFA6
:1094D00001232078FFF7B4FE0028C4D1636A23F08B
:1094E00004036362DCE71906E27B13D4E37B626A60
:1094F000023B012BD9D8D305D7D561692078FFF776
:109500004BFF00236361636A23F480736362002866
:10951000CBD0A8E702F0FB03012BC6D0216920784D
:10952000FFF720FF636A256123F080036362002850
:10953000DCD098E74022C4E74FDB0A0851DD0A0877
:109540007FDB0A08F7B5857804461F2D47D80778D2
:1095500001A93846FEF79AFE28B9019B5B6ADA0634
:1095600001D5DB043DD400216678009175B93846F9
:1095700001A9FEF78BFE044690B16846B8F0B0F83A
:10958000194853F03BF9848003B0F0BD2B460846E0
:10959000E21CB8F0B9FA00900028E8D11A24EFE7ED
:1095A000DDE9004596B905F11000B8F099F82C6195
:1095B0006C6A44F0800400236C6214F01004009381
:1095C000DBD02846FFF702FF0446D6E705F114007A
:1095D000B8F086F86C616C6A44F48074EBE721247F
:1095E000CEE70224CCE700BF2002560010B5104C95
:1095F00094F8833033B1E06D10F0010002D1FEF732
:1096000059FE00B910BD436ADB06F8D54EF660225C
:1096100094F884304FF4827153430648002271F06D
:109620003BFA0028EED1E36D43F00103E365E9E77F
:1096300008120020CC1200202DE9F341D0F801607F
:1096400001A90078FEF722FE0546002831D1019CD1
:10965000676A7A0415D4730704F1010830D54146CE
:10966000062071F03DFD002842D1A37903F03F03AD
:10967000A3711423E371636A43F4004343F00803C6
:109680006362A36AF0064CBF43F4005323F4005313
:10969000A362636AB1064CBF43F4003323F4003382
:1096A00072064CBF43F4802323F4802343F002036B
:1096B0006362114853F0A2F8858002B0BDE8F081E2
:1096C0004046FFF7BBFA78B90C4B47F00807D3F8D0
:1096D0006720C4F80120B3F86B2093F86D30A8F828
:1096E000042088F806306762636A23F40043C7E702
:1096F00040F20745DDE700BF2002041208120020F7
:10970000F8B5456A0446690419D4184F05F40043B6
:1097100097F88320012A13D1826A920410D473B17E
:10972000411C062071F0DCFC48B9A37903F03F032B
:10973000A3711423E371636A43F008036362F8BD05
:10974000002BFCD1661C3046FFF778FA0028F6D1D2
:10975000D7F86720064BC4F801209A889B7945F01A
:109760000805A4F80520E3716562E8E70812002007
:109770006F12002022F00042052A38B50DD0B2F554
:10978000827F15D0032A06D11D4AD36D23F0020330
:10979000D365FFF775FD002038BD194A1B88B2F864
:1097A00080109942F7D10023A2F880300120F3E71E
:1097B000134DEB6D23F00103EB6595F88330012B1E
:1097C000F4D10020FEF776FD044640B9FFF70EFF06
:1097D000EB6D43F00403EB65FFF752FDE6E7636AC8
:1097E000DA060BD55B0409D42046FFF789FF636ACC
:1097F000204643F006036362FFF7E8FD2046E1E7F9
:109800000812002022F00042B2F1A04F08B504D1A6
:109810000348A5F042FE012008BD0020FCE700BF80
:1098200000730C0822F00042B2F5887F19462DE93A
:10983000F04700F0ED800ED840F203139A423FD07B
:1098400040F209139A4200F0CD800E2A00F0BE804B
:109850000020BDE8F08740F207239A4249D0B2F5D4
:10986000037F5ED040F206239A42F1D10C686D4826
:1098700094F8523094F8735003F0070303445430C3
:1098800093F84CA094F8709094F9758094F87670E1
:109890008E88A5F002FE0028DAD0E36C4360B4F8AD
:1098A000503080F80AA003816B1E5D425D41C57295
:1098B00080F80C9080F80D808773A0F80F60C7E7E0
:1098C0000C782046FEF77EFC0028C1D05648B1F83F
:1098D00002808F88CE880D7AA5F0DFFD0028B7D0F2
:1098E0000471A0F80580A0F80770A0F80960C5729F
:1098F000AEE70C782046FEF765FC0028A8D04B7830
:109900004A48013BDBB20A2B97BF464A00259B1809
:1099100093F85C50A5F0C1FD002899D00471457101
:1099200096E78C78012C1FD0022C2FD0D4B9CB789D
:109930000E78023BDBB2022B8CBF0124394A91F92D
:1099400004809CBF9B1893F86C404F7991F90650A6
:109950003748A5F0A2FD28B10671447180F8068051
:10996000C7710572012074E7CB780E78023BDBB239
:10997000022B98BF2B4A91F904809CBF9B1893F847
:109980006C404F7991F906502A48E2E7CB782A4893
:10999000023BDBB2022B97BF224A01249B1893F8AB
:1099A0006C404E780D7891F9049091F8058091F90A
:1099B0000670A5F072FD0028D4D086808571C47130
:1099C00080F8089080F809808772CBE70B46082260
:1099D000002113F8014B1948A5F070FD0028C1D0F3
:1099E0000471BFE7164891F800804F888E88CD88B3
:1099F0000C89A5F052FD0028B4D080F80480A0F8AE
:109A00000570A0F80760A0F80950A0F80B40A9E77E
:109A10000C481C78A5F041FD00283FF419AF0471F3
:109A200016E700BFB8720C0810730C0820730C08FE
:109A300028730C082C730C0830730C0834730C0852
:109A400038730C083C730C08184640F20A4322F0A5
:109A500000429A422DE9F04110D8B2F5806F40F2F1
:109A6000B3806FF48063D318092B00F2AD80DFE878
:109A700003F05716263723232323AB5740F2015315
:109A80009A423BD0A2F20253032B00F29D80A2F235
:109A90000352022A56D8DFE802F05D809300057871
:109AA0004468826900F1080300214848A5F006FDDA
:109AB00010B10571C0F805400120BDE8F0810678BD
:109AC00045880479826900F1080300214048A5F027
:109AD000F5FC0028F0D00671A0F80550C471EBE742
:109AE000057844884269031D00213A48A5F0E6FC48
:109AF0000028E1D00571A0F80540DDE70778468829
:109B00000579C48800F1080200213348A5F0FBFC68
:109B10000028D1D00771A0F80560C5710481CBE79A
:109B200040F201439A4205D1057844882B48A5F0BC
:109B3000B4FCDDE704782A48A5F0AFFC0028BBD0D0
:109B40000471B9E7077846880579C4882548A5F0E7
:109B5000A4FCDDE7876806784588047977B1C78873
:109B600000F1080200212048A5F0CDFC0028A3D078
:109B70000671A0F80550C47107819DE73B463A463F
:109B800039461948A5F09AFC002895D00671A0F82E
:109B90000550C471077247728EE790F800804788BD
:109BA0000679C58804891148A5F077FC002883D080
:109BB00080F80480A0F80570C671058144817BE7B8
:109BC000057844680A48B2E7002076E740730C083D
:109BD00044730C0848730C084C730C0850730C0841
:109BE00054730C0858730C085C730C0860730C08F1
:109BF00064730C082DE9F8430023254C8C21C4F82C
:109C0000D430A4F8D83002680120C4F8D42094F8E5
:109C1000D49023604A4670F0F9FF054620BBA04669
:109C2000064648F8D00F4E4521D31A491A48B7F0D6
:109C300050FCB4F8D640A4F11B03E02B14D8042147
:109C400042F22400FFF74AF96FF06F034371422399
:109C5000A0F80340837111484FF064FAFFF730F920
:109C600043790BB1FFF733F92846BDE8F8830120AB
:109C700071F032F807468C2200210136A1F030FF46
:109C800087F87060C8F8007007F10408CBE700BFE0
:109C900008120020D0260220CC12002001DF0A0882
:109CA00010B5114BD3F8DC301C7FD4B1102C28BF79
:109CB0001024B7F061FC621C81B200230720D2B2ED
:109CC00070F0A4FF044650B908490948B7F001FCF8
:109CD00008480949B7F0FDFB084871F0A5F920468E
:109CE00010BD0424E5E700BF08120020E026022092
:109CF000E8120020EC120020F026022000270220AB
:109D000030B5124B0D469942144689B01BD19300D1
:109D100011D505A906A870F05FFF07230022039361
:109D2000059BE1B20293069B2846CDE9003241F043
:109D30000051B7F0A3FB0648A5F0AFFB00B10471DA
:109D4000012009B030BD0020FBE700BFEC1200206D
:109D500068730C08F0B5054685B02848A5F0EFFA01
:109D6000002844D02C68002C43DB00236F686E7AF7
:109D70002D7A1A46224845F00051B7F06DFB0023BA
:109D80001F481A4645F08041B7F066FB4CB30720E8
:109D900070F0B8FF01282ED9631EB3F5A37F98BFDA
:109DA0004FF4A474B8F0E8FFA4FB0003C40B44EA2A
:109DB0004344B8F0E1FF0722A7FB0030DB0B43EA86
:109DC0004043002E0CBF4FF000514FF08041CDE9D1
:109DD000023200220A48CDE900422943B7F04EFB87
:109DE0000446084852F00AFD848005B0F0BD022404
:109DF000F7E72124F5E71A24F3E700BF082702203C
:109E0000EC1200202002011A13B50C4601A9B8F08B
:109E1000B9FF10B9019BC4E9003002B010BDF7B51D
:109E2000186810F0020004D01A4DD5F8E81011B9E6
:109E3000012003B0F0BD00240422234668460094AC
:109E4000B7F044FCBDF80230DB070AD405F1E800A6
:109E5000B7F064FC042101900DEB0100B7F0D0FCD9
:109E6000019C00260C4F57F8043B23B12146BDF856
:109E70000000984748B1D5F8E830002BD8D002212F
:109E800095F9040170F064FCD2E70136062EEAD1A0
:109E9000F1E700BF08120020F41200207FB51C4635
:109EA00040F20A6322F000429A4206D8B2F5C06F2F
:109EB00006D8032A20D00D2A4CD0002004B070BD53
:109EC0006FF4C0631A44092AF7D801A353F822F0AB
:109ED000BF9F00086D9F0008919F0008A19F000888
:109EE000B79F0008BB9E0008D79F0008ED9F0008A1
:109EF00011A0000861A00008002402A808F088FB57
:109F000001A8BDF80850019474F01BFD00B1019444
:109F10005548019CA5F0C1FA0028CED0002343711A
:109F20008371C37143726FF0010383724FF0FF338B
:109F3000C3723E2383746FF011030922C3746FF060
:109F400063030271037501224D230272C46005820E
:109F50004375B2E723460422002153F8044B4348DB
:109F6000A5F0ACFA0028A8D08480A6E7257828467A
:109F7000FEF728F90028A0D03D4894F90160A478A4
:109F8000A5F08BFA002898D005714671847194E78A
:109F900024783848A5F081FA00288ED004718CE727
:109FA000257835486468A5F078FA002885D00571D1
:109FB000C0F8054081E7257830486468F3E7304809
:109FC00025786468A5F069FA00283FF476AF05713A
:109FD000A0F8054071E72B4825786468A5F05DFA84
:109FE00000283FF46AAF0571447166E7627826483D
:109FF0000D2A97BF254B01259B1893F8D450247840
:10A00000A5F04BFA00283FF458AF0471457154E7AE
:10A01000627800210D2A98BF1C4B1D489CBF9B18DD
:10A0200093F8D450A278636888BF01252678A5F0FC
:10A0300045FA08B1067145716378012B3FF63DAFD3
:10A040008DF8083001220021114802AB2478A5F0D8
:10A0500035FA00283FF431AF0123047143712CE736
:10A0600024780C4896E700BF6C730C0870730C08DA
:10A0700074730C0878730C087C730C0880730C08DC
:10A0800084730C0888730C089C730C08B8720C0855
:10A09000A0730C08A4730C08F7B51F68F90726D540
:10A0A0004FF6FF730025284C284EA4F85630284B55
:10A0B00006F14C0104F1C400C4F80831C4E910559C
:10A0C000C4E9125584F834502565B7F002FA2149E5
:10A0D000084674F04FFAF7232846A6F85C30FEF7DE
:10A0E0007FF806F1600104F1C400B7F0F2F9BA0795
:10A0F00027D5154C236CF3B9A36CE3B9164D019326
:10A10000BCF012FC04462846B7F008FB019020463C
:10A11000BCF005FC0199A1B14B799B070FD402213A
:10A1200001A8B7F06DFB01990C48B7F050FB022075
:10A13000FEF756F8E4E70220FEF752F8DAE708489F
:10A14000F3E7002003B0F0BD08120020D026022063
:10A1500089BD0008A8730C081413002048120020C1
:10A16000501200202DE9F04F87B00593BDF8403024
:10A1700004460393BDF844301546029104932BB175
:10A18000129B1BB9212007B0BDE8F08F15F03009F4
:10A1900016BF4FF003084FF0020801235FFA88FB57
:10A1A00018BFC5F340195A464FF0000158461ABF70
:10A1B0004FEA49090193CDF80490FEF71DFC08B958
:10A1C0001A20E0E72046FDF78BFF04460028D9D08F
:10A1D0004088FEF718F90028D4D0667A7307039BED
:10A1E00048BF06F0FB0603F1060080B248BF46F008
:10A1F0002006FEF7BBFB82460028E1D02046FEF792
:10A2000049FE414B00F11004D9899A68074602EBD8
:10A210000112944252D15846FDF71FFF044642F600
:10A220000300FDF70DFF637AEDB233436372374BE2
:10A230006080636005230220237202992573FEF774
:10A2400067FC4FF6FF73984203D1029B1888FDF715
:10A250009BFE637EE0811E43059B6082A3824FF6D6
:10A26000FF73E38201232376039B6676C4F81CA068
:10A27000AAF80230049B8AF8005023B1129B13B154
:10A280001B788AF80630139B228A1A80019B9BB1A7
:10A2900042F60210FDF7D4FE1D4B1B4A63620323F6
:10A2A00084F8283092F820306084591C84F82C906F
:10A2B00082F8201084F82D30002064E7121BC2F3CE
:10A2C0000F12214612014FEA081B04EB0810A1F0FF
:10A2D000EDFB5A4600212046A1F002FC0B200A4B60
:10A2E0001A8ED98908EB02039BB23A82013292B2EC
:10A2F0009A42787607F11007F7D1034B88441A8603
:10A30000A3F80E808BE700BF081200200108FFFFB2
:10A310000308FFFFF8B5142704460E460B683A46BB
:10A320001D0A00210435A1F0DBFBEDB221222046FD
:10A330003946B7F023F920462946B7F0A8F9A279A3
:10A3400033681444E360F8BD01232DE9F0418B40EC
:10A3500090F87110044621EA030149B280F87110A7
:10A36000002953D110211830B7F0F1FB334D286884
:10A3700000284DD1324D04F13800B7F0B1F92B6807
:10A380001BB19C425A684DD12A60A36859051AD561
:10A390001A0518D443F4006304F1780630462949BD
:10A3A000A36094F87080E768FFF7B4FF304694F834
:10A3B0007C10A5F014F830B994F87E30843323442F
:10A3C00083F806809F80002320466360B7F0A9F8D9
:10A3D000012070F0AFFC4FF48072C0B2B2FBF0F21B
:10A3E000424394F870300344B3FBF2F102FB1133A3
:10A3F000DBB2591EC9B2FD29F5D884F870300023AC
:10A40000114A6360D5F8D030ABB91460BDE8F08173
:10A4100083689C4204D1066870F0CCFC2E60A6E7ED
:10A420000546A4E71A465B68002BAED09C42F9D1E2
:10A4300063685360A9E71A1D5B68E5E74C120020CA
:10A4400008120020B8730C08D812002010B504467A
:10A45000806920B10021FFF777FF0023A36110BDC1
:10A460002DE9F041244E017886F88210002941D070
:10A4700001EBC101002301220420C90070F0C6FBDA
:10A48000054658B9042070F027FC4FF048082F46C5
:10A49000B06596F882309D4203DB00252846BDE872
:10A4A000F081B46D002108FB05441422A76104F17A
:10A4B0003400A1F015FBA0224FF4A073C4E90723D8
:10A4C000072304F1100084F83130E773E771B7F027
:10A4D00007F904F11400B7F003F92046FFF7B6FFBF
:10A4E00040F20113E3857F23A76284F8323067626C
:10A4F0000135CEE7B165D0E708120020F7B507783F
:10A5000001A93846FDF7C2FE0546002839D1019C55
:10A51000636A13F0100508D023F0100343F004031E
:10A5200020466362FEF752FF0546FF232370636AED
:10A53000A02223F0010363624FF4A0730026C4E954
:10A540000723072304F1100084F83130E673E67125
:10A55000B7F0C6F804F11400B7F0C2F82046FFF7D0
:10A5600075FF40F20113E3857F2331463846A6622A
:10A5700084F832306662FEF7F5FE31463846FEF763
:10A580000BFF034852F03AF9858003B0F0BD00BFDD
:10A590002002040290F8393073B55B0704460D467B
:10A5A00033D4FFF7ADF86B1E042B1DD8032D1BD041
:10A5B000E379142B2BD0A369B3B91648694690F8F8
:10A5C000836000F167026030012E18BF10460093CF
:10A5D000ADF804308DF80630FEF750FB18B91A2597
:10A5E000284602B070BDA061636AE57343F01603AC
:10A5F0006362FEF7FBFF2046FEF7E8FE05460028F3
:10A60000EED02046FFF722FFEAE70225E8E7212502
:10A61000E6E700BF0812002037B5457801A90078A9
:10A62000FDF734FE044618B9052D019C06D92124F6
:10A630000F4852F0E3F8848003B030BD2069B7F0D2
:10A64000BBF81F28F3D86069B7F0B6F81F28EED81A
:10A65000012DECD02B1F012BE9D9636A204623F48E
:10A66000825363622946FFF795FF0446E0E700BF87
:10A670002002560213B501A9FDF708FE78B9019C26
:10A68000636A204623F0500343F004036362FFF73C
:10A69000DDFE204602B0BDE81040FEF797BE02B0D6
:10A6A00010BD002010B5FDF705FE044600B910BD31
:10A6B0002078FFF7DFFF2046F5E710B50078FFF7B9
:10A6C000D9FF0446024852F099F8848010BD00BFBB
:10A6D0002002040A002337B580F8723040F6FF7379
:10A6E000A0F86E3083680446DA040D46C16010D4C9
:10A6F00043F480636A46A36040F203212046CDE91B
:10A700000045B6F022FF00212046FFF71DFE03B0F2
:10A7100030BD694690F87600FDF7B8FD18B900988D
:10A72000C17BFFF737FFA36823F48053E2E738B516
:10A7300000230F4C2568E36765B9206888B9C4F821
:10A74000D000012070F0A6FABDE8384009490A4857
:10A75000B6F0E3BE284641F21601FFF7BBFF6D6875
:10A76000EAE7436890F871102360FFF7EDFDE4E736
:10A7700008120020D0260220CC12002038B54B79D8
:10A7800005465B070C460BD420460649FFF7C2FD81
:10A7900020462179A4F023FE10B9A3791C44257426
:10A7A00038BD00BFBC730C08F8B50546BCF0BCF85A
:10A7B0001D4F064697F8153107F5887413F0040FFE
:10A7C0000ED120461949FFF7A5FD204697F8141130
:10A7D000A4F005FE20B13046BDE8F840BCF09FB8BB
:10A7E00097F816310C3323442DB91A79FF2AF2D089
:10A7F00001321A71EFE7012D05D15A79FF2AEAD00B
:10A8000001325A71E7E7022D05D19A79FF2AE2D089
:10A8100001329A71DFE7032DDDD1DA79FF2A1CBFFF
:10A820000132DA71D7E700BF08120020C0730C08AC
:10A8300040F6FF732DE9F341B0F86E2001919A4282
:10A8400005D101A8B6F04CFF02B0BDE8F0810B467F
:10A8500001248BBB1D48B6F0BAFF1C4D2846B6F04C
:10A860005DFF04460028EFD0B6F0A6FF63790646E8
:10A8700003F001086FF30003637104212046A76809
:10A88000B7F06EF84279847968F300024271D243DE
:10A89000B7F86E100C34876002F001020155C1F365
:10A8A000032100EB040C41EA02118CF80110ACF812
:10A8B00002604EF04BFCD1E75A79986022F0030217
:10A8C00022435A7100241B68C3E700BF4C120020CA
:10A8D00073B5044610460E460192B6F06DFF042192
:10A8E00085B20198B7F03CF8014628B901A8B6F046
:10A8F000F7FE1A2002B070BD837901900C33C218A4
:10A900005680C5522046FFF793FF0020F2E70A4623
:10A9100000680421DCE709B11439F8E71A20704710
:10A92000F8B504460F46164605210120069A1D4635
:10A93000FDF737FF014630B147704680057120466C
:10A94000BDE8F840E7E7F8BD012110B50022044654
:10A950001920FDF726FF014618B12046BDE810403A
:10A96000D9E710BDF0B50E46044685B0FDF7E0FE10
:10A97000F278B378482043EA0223A4F86E30727E5E
:10A98000337E43EA0223A4F86230727F337F43EAC6
:10A990000223A4F86430F27EB37E43EA0223A4F8D3
:10A9A00066301B23A4F86C305A4BB3F87620B3F80A
:10A9B0007830A4F86820A4F86A30022384F8723052
:10A9C000A36843F40073A36094F87330022B02BFB2
:10A9D00094F8713043F0010384F87130B7F0EEF869
:10A9E0000546014648224C4873F0C9FDE5B194F88C
:10A9F0007130002743F0080384F87130A36C2A46B5
:10AA00006B604FF4B813A5644449AB6020462C60DA
:10AA10002F776F6470F062F83A46414905F10C00F7
:10AA200070F05CF802232B744FF6FF73308C984261
:10AA30005DD102944FF6FF7340F2062102AA394815
:10AA4000ADF80C30B6F081FD002240F20221204624
:10AA5000B6F033FD2046FDF72EFF022142F2300012
:10AA6000FEF73CFAB4F86E30A0F803302E484EF0F2
:10AA700059FBFEF725FA4379ABB9FEF721FAC088F6
:10AA8000FDF792FB054670B1FEF71AFA95F87020B3
:10AA9000037A8DF8042040F20721224801AA8DF89C
:10AAA0000530B6F052FDFEF70BFA43790BB1FEF715
:10AAB00007FAA368042123F48043A36042F27A00DA
:10AAC000B4F86E50FEF70AFA012343710023A0F890
:10AAD0000350837115484EF025FBFEF7F1F94379D9
:10AAE00093B9A36843F40053A36005B0F0BDFDF72C
:10AAF000FFFB029400289DD00C22B0FBF2F2837A77
:10AB000043EA02239BB297E7FEF7E1F90028ECD174
:10AB1000E7E700BF08120020A8730C086DB6000814
:10AB2000499A0008CC1200203D9405085DE20A080D
:10AB3000F7B504460F46164668465A79991D1D46D4
:10AB4000FDF7DCFD2CB969463046FEF797F8044660
:10AB5000A0B140F2032329462046A4F8723084F8BD
:10AB600076703368C4F85A30B388A4F85E30B3798D
:10AB700084F8603003B0BDE8F040F3E6032140F212
:10AB80000640FEF7ABF96B88A0F803300D23437144
:10AB9000024803B0BDE8F0404EF0C4BAE5DD0A0853
:10ABA0008378F7B5122B0E4635D10B689A790C32A3
:10ABB0001344DD781F790DB145F48055384601A95D
:10ABC000FDF764FB88B9019C636A23F0100363629C
:10ABD0008DB93946A069621C104BFFF7A9FF2222EC
:10ABE00029460E48A561A0F07BFF304603B0BDE8C2
:10ABF000F040B6F075BD2046FFF728FC636A5A06A0
:10AC000003D523F040036362EFE7384604F13401D3
:10AC1000FFF7B4FDE9E703B0F0BD00BF8E120020DE
:10AC2000F0B503780446302B0D4685B039D005D8F1
:10AC3000052B25D0082B41D005B0F0BD3E2BFBD114
:10AC400083780C2B4CD8022BF6D9033B092BF3D875
:10AC500001A252F823F000BFF1AC000877AE000863
:10AC600039AC000839AC000801AE000839AC000866
:10AC700039AC000839AC000839AC000855AE000802
:10AC8000B0F80300FDF790FA28B1617909B141F4F9
:10AC90008051FFF71FFD284605B0BDE8F040B6F033
:10ACA0001FBDB0F80300FDF77FFA0028F3D0A178AC
:10ACB00009B141F48051FDF73BFEECE7B0F8030029
:10ACC000FDF772FA0028E6D0627990F8743022B16C
:10ACD00043F0010380F87430E9E703F0FE03F9E77D
:10ACE000212B00F0DD80292B1FD0202BD3D0A3E710
:10ACF0008088FDF759FA0028CDD0E278002ACAD121
:10AD0000E179A27942EA0122A0F86220E17AA27AEE
:10AD100042EA0122A0F86420227A617A42EA012202
:10AD2000A0F86620FDF7C7FDB5E7C678811C3C2E6C
:10AD300021D10020FDF7BEFA0028ACD0C37B012B47
:10AD4000F8D1436ADB06F5D50678FF2EA3D030464E
:10AD500001A9FDF79BFA00289DD1019C636A20465A
:10AD600023F010036362FFF771FB304604F13401F6
:10AD7000FFF704FD8FE7877907BB594AD46FD76780
:10AD8000C6B1204646F48056FDF7D2FCE66084F852
:10AD9000727040F20121204601AACDE90146B6F0C9
:10ADA000D4FBA368394643F480632046A360FFF7D1
:10ADB000CBFA70E72046FFF7D5FD6CE74FF6FF733F
:10ADC000408C984211D0FDF793FA70B1444A0B467B
:10ADD00092F8834002F167006032012C18BF0246EE
:10ADE000FF210020FFF7A4FE55E73E4B223451F827
:10ADF000042BA14243F8042BF9D10A881A804AE7B0
:10AE0000B0F80300FDF7D0F900283FF444AF40F25A
:10AE10000911B4F8053090F87020A0F86C308DF866
:10AE20000420ADF80630227AE37943EA0223ADF834
:10AE30000830A27A637A43EA0223ADF80A30227B13
:10AE4000E37A43EA0223ADF80C3001AA2648B6F0B3
:10AE50007CFB20E78088FDF7A7F900283FF41BAFB3
:10AE600090F87020A3798DF8042040F207218DF826
:10AE7000053001AAEAE78088FDF796F900283FF43B
:10AE80000AAF90F870300E218DF80430D4F80630F7
:10AE900001AACDF80530D4F80A30CDF80930D5E74D
:10AEA0008088FDF781F900283FF4F5AE90F8703006
:10AEB0004FF403718DF80430E37801AA8DF8053062
:10AEC000A3798DF80630E3798DF80730237A8DF871
:10AED0000830637A8DF80930A37A8DF80A30B5E727
:10AEE000081200208E120020CC1200207FB50246EE
:10AEF00018B1022808D004B070BD0321384804B04E
:10AF0000BDE87040B6F0D9BA364C04F14800B6F04E
:10AF100005FC002852D0827901900C32835C8518A0
:10AF20000F2B0CD8042B0ED9053B0A2B0BD8DFE8CE
:10AF300003F0300A0A300A0A0A0A0A132D00302BDD
:10AF400027D03E2B2AD04EF0CBF8019B8342D2D0A3
:10AF500001A8B6F0C5FBCEE7AB78A363B5F8033024
:10AF60009AB2102AEFD040F603418A42EBD06A79B8
:10AF7000ADF80C30B4F856308DF80A20052102AA3D
:10AF80001748ADF80830B6F0E0FADCE7EB78A363D9
:10AF9000D9E7284601A9FFF743FED4E70024124E63
:10AFA000019B3BB1284656F8043B01A90134984760
:10AFB000102CF5D101A8B6F093FBC4E7236C002B4D
:10AFC00099D004F14000B6F0A9FB0290002892D07D
:10AFD000D4F808310BB198478DE702A8B9E700BF54
:10AFE000CC12002008120020C4730C082DE9F04F89
:10AFF000914287B00F4615461E46BDF840B0BDF8D9
:10B000004490BDF8488000F2848040F67A428B1F5D
:10B010009BB293427DD8B5F5486F7AD8B6F5FA7FE2
:10B0200077D240F67642ABF10A039BB2934270D8D6
:10B03000731C9BB26B43B3EB8B0F6ADAC14568D8C4
:10B04000FF2810D1364BA3F86E10A3F87050A3F868
:10B050007260A3F874B0A3F87690A3F8788000200B
:10B0600007B0BDE8F08FFDF7ADF80446002850D0DA
:10B0700090F873302A46012BCDE901983346CDF87C
:10B0800000B008D1FDF73EFF0028E9D1A4F8689090
:10B09000A4F86A80E3E7FDF735FFA36813F40043E3
:10B0A00039D11F4A042192F824A118460AF1010A55
:10B0B0005FFA8AFABAF1010F38BF4FF0010A82F83D
:10B0C00024A110220593B6F0B5FC014628B34FF039
:10B0D000050C8079059B0C300A1882F802C04FF0ED
:10B0E0000C0CD37001F800C01220107108205370AE
:10B0F0009071D371204682F805A017815581968101
:10B10000A2F80EB0FFF794FBA36843F40043A360DA
:10B11000BCE72120A4E70220A2E71A20A0E700BF95
:10B12000081200201FB54389029303890193C38845
:10B130000093838842880188FF20FFF757FF044669
:10B14000024851F05BFB848004B010BD2002060071
:10B150001FB501460078FF2817D0B1F80B300293D5
:10B16000B1F809300193B1F807300093B1F8053018
:10B17000B1F80320B1F80110FFF738FF0446044886
:10B1800051F03CFB848004B010BD2124F7E700BFE0
:10B190002002060670B50A2205460E46002004214C
:10B1A000B6F048FC0146B0B1847900220C34031992
:10B1B000052098700620DA700855012018710220C9
:10B1C0005E7198715A702846BDE87040DA711A7243
:10B1D0005A72FFF72DBB70BDF8B505460F461646EF
:10B1E00004210A220020B6F025FC0146A8B184798A
:10B1F00000220C340319052098700620DA700855D7
:10B200001320187102205F7198715A702846DA7104
:10B210001E81BDE8F840FFF70BBBF8BD00232DE908
:10B22000F04FDFF8988191B0CDE90633CDE90833CE
:10B23000D8F80430054613F008090CD008F59673C9
:10B2400008F59E7853F8042B434545F8042BF9D1B3
:10B2500011B0BDE8F08F032008F034FFB6F0AEFC6B
:10B2600007460028F4D0062008F02CFFB6F0A6FC14
:10B27000064618B93846B6F0A3FCE9E7CDE90499CB
:10B2800012F0CAFD20B13846B6F09AFC3046F2E71B
:10B290004FF4A053DFF828A11022C6E9023A454B2B
:10B2A0003046336006A904AB77F0F6FB0446A8B934
:10B2B00052463846049977F086FE044670B9CA466D
:10B2C000D8F82C301FFA89F2D988914227D8102259
:10B2D0002946384605AB77F0A2FE0446384677F09B
:10B2E000CAFD3846B6F06CFC304678F066FC304655
:10B2F000B6F066FC049811F08BFC002CA8D12E4B04
:10B3000005F1100255F8041B954243F8041BF9D1CE
:10B31000D8F8043043F00803C8F8043098E71A68F6
:10B320001FFA89FB4FEA0B1102EB0B1BBBF8020063
:10B33000ADF80EA001910092FCF7DCFF04465846E0
:10B34000FCF7A8FE30B3DDE90021A4F520539BB241
:10B35000032B02D9B4F5245F1FD1535A002059465C
:10B36000ADF828300DF10E020DF10D03ADF82A40B5
:10B37000FDF75CF9BDF80E2001460BA8A0F069F9B5
:10B38000BDF80E20384604320AA977F01FFE0446A5
:10B390000028A3D109F1010992E704F55643FF33D0
:10B3A0009BB2042BF6D8535AADF82A40ADF828309A
:10B3B000E6E700BF002480003413002008120020BC
:10B3C0000002C0031FB504466846FFF727FF10229E
:10B3D000694604F12100A0F059FBB0FA80F0400961
:10B3E00004B010BD2DE9F3470F4690469946054637
:10B3F00018B1037C012B00F09E806B69781E43F02E
:10B4000004036B6180B2FCF76BFE064658B1B6F9D7
:10B4100002304088002B42DBFCF7FEFD42F60303BE
:10B4200098423CD1367B002239462846FCF790FFF3
:10B4300082463846FCF754FE4088FCF75BFF42F634
:10B44000052398422DD116F0300F36D1B3066AD5B8
:10B450001AF0020F69D0EA8B002A68D16B890321A8
:10B46000033B9BB24B45009228BF4B4642461D20F2
:10B47000FDF7BBF9014600285BD0A0F80170284613
:10B48000FFF749FA0446002843D1024647F23053F9
:10B4900040F20A412868EF836FF0FEFA39E0002697
:10B4A000C1E795F82030D807CDD52846FFF78AFFA9
:10B4B0000028C8D141F212142BE01AF0030FC5D0B6
:10B4C0003846FCF70DFE014658B3FCF7E3FD40B3E8
:10B4D0008A8812F4E04F02F4005109D171B9520484
:10B4E000B4D52B6893F975300133AFD108240EE041
:10B4F0002868FCF793FF044639B140B92B6893F8EC
:10B5000074309907EBD4052401E00028E7D004F556
:10B5100088546B6923F004036B61204602B0BDE8D8
:10B52000F0870124F3E72124F3E70224F1E705245F
:10B53000EFE71A24EDE70724EFE770B5044600783B
:10B54000FCF740FEC0B1856CB5B1B4F8016030467F
:10B55000FCF7ECFD90B16A89E378033A92B293422A
:10B560000FD8221D31462846FFF73CFF0446064807
:10B5700051F044F9848070BD2524F8E741F20114AC
:10B58000F5E74924F3E700BF20020A1073B5124B18
:10B590000E4605460446019398B1FFF713FF70B9B4
:10B5A000002231462046FCF7D3FE022806D10423B0
:10B5B000314620460DEB0302FFF714FF0DB102B038
:10B5C00070BD2046FCF7AFFC04460028F7D0FFF71B
:10B5D000F9FE0028F5D1E3E70100FFFF213001B9B2
:10B5E0001CE610220021A0F07BBA002310B590F8D1
:10B5F000202041FA03F4E40703D442FA03F4E407F9
:10B600000DD40133082BF4D101F001010A4380F875
:10B61000202011B10021FFF7E1FF002010BD132011
:10B62000FCE770B4E8B100291BDB0F4DED6A2D7EFD
:10B630008D4216DD3F2914DC032601F0030500EBE3
:10B64000A10191F831406D00AE4002F0030224EAFE
:10B650000604AA40224381F8312013B170BC0021B6
:10B66000BCE770BC704700BF081200202DE9F04114
:10B6700022F000430D46114640F203229342044655
:10B6800088B000F09680B3F5017F0CD240F2012221
:10B69000934200F08E8040F2022293421ED000209E
:10B6A00008B0BDE8F0816FF481621344012BF6D835
:10B6B000037C012BF3D00123037440F20943994228
:10B6C00000F0AD8040F20A439942E8D150F80C3BBB
:10B6D00004AA93F870308DF81030A9E000F121052C
:10B6E0002846FFF79BFD42F60520FDF763FA064664
:10B6F00004A8FFF793FD102229460DEB0200A0F0ED
:10B70000C5F908B320460121FFF768FF42F605207E
:10B71000FDF750FAA0B10021FCF7F1FD0146054606
:10B720002046FCF711FC07461022002104F13100ED
:10B73000A0F0D6F900233A4629462046FFF771FFCC
:10B74000636923F00103636142F60303022003A946
:10B75000ADF80C30FDF7DCF9012507464FF0000885
:10B7600028463A464FF6FF71FCF7F1FC05460028E3
:10B7700095D0FCF7DBFC0135ADB20028F0D0AE422D
:10B7800003D131462046FFF701FF294620460DF13F
:10B790000E02ADF80E80FCF7DBFD03460028DFD07B
:10B7A000BDF80E202946009220460122FDF76BF8D5
:10B7B000D6E763699B0704D540F209412068B5F0DC
:10B7C00053FE002D3FF46BAFAC6C002C3FF467AF21
:10B7D000194E2068836C9C4219D1636883642246A9
:10B7E0003146B5F07AFE04F10C00B5F09AFE04F192
:10B7F0004400B5F075FF2046B6F0E2F9AC6C002CC1
:10B80000E7D103212846FEF79FFD48E71346002BAA
:10B81000E5D05A689442F9D162685A60DFE74FF484
:10B82000816150F80C3B04AA93F870308DF8103009
:10B83000B5F08BFE33E700BF6DB600082DE9F0438D
:10B84000044689B008460F4616460393FCF748FCA9
:10B85000054618B15CB1FCF71DFC40B903A8B5F072
:10B860003FFF4FF00108404609B0BDE8F0832B7A56
:10B87000072B05D8DFE803F01D2F3A44231D1D29AF
:10B8800076BB0398002841D1324695F80880B8F17C
:10B89000020F78D0B8F1030F79D0B8F1010F45D07D
:10B8A000002C40F093804FF0000803A8B5F018FF7B
:10B8B000D9E703A8B5F014FF4FF00308D3E703A8B6
:10B8C000B5F00EFF4FF00608CDE703A8B5F008FF6E
:10B8D0004FF08008C7E7EB68B3F80280B0450BDA99
:10B8E00003A8B5F0FDFE4FF00708BCE7EB689A88A7
:10B8F000B242F5D3B3F80280039840B9024609E09A
:10B90000022EEDDC039870B90246BEE7B046B5F0F2
:10B9100053FF82B293194345B7DD03A8B5F0E0FEAB
:10B920004FF00D089FE74FF00208F0E7E868063097
:10B93000002303993044B5F0C9FE002CB3D02B7A14
:10B94000032B43D12E4642F6030903A8B5F0C8FEE7
:10B950002C4BDB6AD3F80080464505D97088FCF78C
:10B96000C9FC484530D11036697B2046FCF7ECFA1B
:10B97000368803460122314620460097FCF783FFB4
:10B980004FF000086FE7E868B3188380CFE7039BA8
:10B990009A79D979891AC9B2481E012811D8134455
:10B9A00002291A7B04BF5B7B42EA03222B7B32EA2B
:10B9B00003037FF47AAF01232046697BFFF731FE52
:10B9C000BBE74FF00D0870E7103EC5E7204650F882
:10B9D0000C1B227F91F87010039B8DF814108DF8CA
:10B9E000182040F2015105AA0493ADF81670ADF885
:10B9F0001A600793B5F0A9FD0028C1D104A8B5F0DD
:10BA00006FFEBDE708120020002170B5421D0379CA
:10BA100004460846B6F078F80546A8B142F62A3042
:10BA2000FDF7C8F82688864210D062882B4631463A
:10BA30000020FFF703FF044608B100F588540548CD
:10BA400050F0DCFE848070BD1A24F8E741F2031444
:10BA5000F5E700BF20020A0230B5044685B068460B
:10BA6000FFF7DCFB10216846B6F063F82046FCF7D0
:10BA700037FB6B46C26804AD06321C4603CCAC42B1
:10BA800010605160234602F10802F6D105B030BDC6
:10BA900037B50488458842F62A30FDF78BF8844292
:10BAA00001D1FFF7D9FF214600200DF105030DF16B
:10BAB0000602FDF795F89DF805402CB9BDF8061073
:10BAC00039B90A460C460CE0002204F588541146A8
:10BAD00007E08D420BD8491B89B2F82928BFF8210D
