:020000040800F2
:1060000008120020FDE6000867B8070803A4080886
:10601000E3E7070867B8070867B8070867B807081D
:1060200067B8070867B8070867B80708611C0C0855
:1060300067B807083C760C08F11B0C081F6E0C08AB
:106040007DE1000867B8070867B8070867B8070860
:1060500067B8070867B8070867B8070867B8070888
:1060600067B80708D1F10108574C080841F1010849
:10607000534C080867B8070867B80708C5E6000862
:1060800067B8070867B8070867B8070867B8070858
:1060900067B8070869ED000867B8070867B8070818
:1060A00067B80708A9E9000889E9000867B8070880
:1060B00067B8070829990708C9A30708DF120C0861
:1060C000DB120C08599B0708F5120C08E3120C08A8
:1060D00099A30708E7120C0809A4070875A4070884
:1060E00067B8070867B8070867B8070867B80708F8
:1060F000EFDD070867B8070867B8070867B807083B
:1061000067B8070867B8070867B8070867B80708D7
:1061100067B8070867B8070867B8070867B80708C7
:1061200067B8070867B8070867B8070867B80708B7
:1061300067B8070867B8070867B8070867B80708A7
:1061400067B807089128010867B80708736D0C083D
:10615000D57A070867B8070875120C087B120C0877
:1061600067B8070867B8070867B8070867B8070877
:10617000F0B5114A114C124E00F00105E3695F07BA
:1061800013D40DB9334213D103EA00078F4207D16C
:106190000B4A1A40002A0CBF00206FF00100F0BD2E
:1061A000013AEBD16FF00200F9E74FF0FF30F6E76C
:1061B0006FF00100F3E700BF8096980000000350E5
:1061C0000200010070B50B4BD96911F480310DD17B
:1061D00001244FF48072084E084DF46020462C6470
:1061E0001A61FFF7C5FF3464EC6070BD6FF0010009
:1061F000FBE700BF000003500010035000200350D5
:106200004FF4803238B50E4B0E4C9A66E56941F674
:10621000713315400122E3630B4B0021DA60022346
:10622000606121202361FFF7A3FF10B92120FFF750
:106230009FFF0122054BDA600DB10023E36338BDF7
:106240000090005000000350001003500020035045
:1062500070B5134C6061E3695B071ED40E4656F8B7
:10626000043B8D18A361AE420BD1042300212120F1
:106270002361FFF77DFF58B9BDE870402120FFF78B
:1062800077BF08210846FFF773FF10B1042323618D
:1062900070BD56F8043BA361E5E74FF0FF30F7E728
:1062A000000003502DE9F84315464FF48032184B97
:1062B00089469A6603F51C33DF690646174041F6A6
:1062C0007132DA63012203F58053DFF84C80DA6023
:1062D00055B9284601220F4BDA601FB10022A3F501
:1062E0000053DA63BDE8F88306F5005404EA0804B5
:1062F000A41BAC4228BF2C46494622463046FFF735
:10630000A7FF0028E6D12644A1442D1BE0E700BFEB
:10631000009000500020035000E0FFFF000000004C
:10632000000000000000000000000000000000006D
:106330002DE9F84F602200212948A5F0AAFB482248
:1063400000212848A5F0A5FB00209FED237B264BCC
:10635000264E274ADFF888B0DFF8ACA0DFF8AC9013
:10636000DFF8AC80DFF8ACE01E4FA3F1180C242559
:10637000002145430BEB401443E9054A0CEB0504AF
:1063800043E9039843F8181C43F804EC2177216291
:10639000182404FB007442F8144C164C013042F8E7
:1063A000104C154C032842F80C4C144C42F8181CA5
:1063B00042F8084C124CA6EC027B42F8044C114CFB
:1063C00043F8241B2C442177216242F8241BCED1B0
:1063D000BDE8F88FAFF3008000000000000000006F
:1063E000B08401206884012014840120C01400209E
:1063F000A8830120DD7D01082DE907084BE9070886
:1064000081E9070890830120057E01084FE907080C
:1064100015E9070853E907082DE9F043022089B080
:10642000BCF080FE00B9FEE7654E336803B9FEE7B5
:106430001020BCF077FE3368624C9B880DF10B0195
:106440008DF80B30012320681A46BAF062F99DF8E6
:106450000B203168023A0023096892B22068BAF032
:1064600058F93368584993F829208DF814200022F0
:10647000CDE906121B681D7815F020051FD0206895
:10648000B9F0E4FE002851D02068B9F0DFFE4DF0ED
:10649000C5F902460B4646A1D1E900014DF062FB69
:1064A0008046079889464DF0B9F902460B464046AA
:1064B00049464DF077F84DF0DBFC01250790206848
:1064C000B9F0D2FE9DF80B3098B3981DC0004DF086
:1064D000B5F939A3D3E900234DF01AFA80462068B4
:1064E0008946B9F0C1FE4DF099F902460B46404687
:1064F00049464DF037FB8046079889464DF08EF9A6
:1065000002460B46404649464DF04CF84DF0B0FC73
:1065100007902020BCF006FE80B14FF48050BCF004
:10652000D3FE78F031FE09B0BDE8F0830798C030A3
:10653000C3E70798063300EB4310E9E7336805AF7C
:106540005A69FAB91020BCF0EDFD98B1079B32688A
:1065500003F5FA73117E07931C4B99701C49097857
:10656000D970917900972A462068B9F09EFC0028DE
:10657000D3D1D8E731683B462A4689792068B9F0FB
:106580007EFCF4E71969ADF810000A449621114821
:10659000A2F59B7281809979CDE90007039220686A
:1065A0002A4603ABB9F08CFCE1E700BFAFF30080F3
:1065B0000000000060E366410000000080842E417E
:1065C000F88501205485012020A10700B82702206A
:1065D00002340220AC270220F7B50120BCF0A2FD56
:1065E0000446002840F0B5805D4D5E4B5E4EC5E927
:1065F000003005F11003AB6041F60B233060B3802F
:1066000012F0F8FB594B1B6ADB0700D4FEE721466A
:10661000284669F05FFE044600B9FEE76BF022FAF7
:1066200000B1FEE7204652496AF05CFD00B1FEE78A
:1066300002212046B9F0EBFD00B1FEE720464D49AE
:106640006AF0F8FF00B1FEE701212046BAF00AFA2D
:1066500000B1FEE701212046BAF01AFA074600B160
:10666000FEE701463C224448A5F013FA80233A464F
:10667000204605F11401BAF062F8802800D0FEE748
:106680003E4D0120B9F0F6FB33A3D3E900232C6083
:106690002046CDE900234FF0FF324FF0FF33B9F031
:1066A00076FE014600B1FEE72F4811F02FFF0121D1
:1066B0000846BCF023FD01212868B9F0C8FC044657
:1066C00000B1FEE72E4B2F4A988018602E4B1A60BF
:1066D000FF2298802D4B83F828202D4A98801A603D
:1066E0002C4A6FF06300DA6018F0DEFC33790B2B74
:1066F00011D873790A2B0ED9274B1E600CF064F861
:10670000204612F069FB082228681146B9F059FEAC
:10671000044608B1FEE7FEE712F056FB1F4B1021BE
:106720001F481C7078F080FE00B9FEE71D491C4828
:1067300078F08CFE00B9FEE710218C201A4A77F021
:10674000EBFF00B1FEE7194803B0BDE8F040A8F048
:1067500082BF03B0F0BD00BF0AE020FFE2030000EB
:106760006485012069350C085C8501200080E00FFC
:1067700007001100E07B0C081485012054850120DE
:1067800048150020330C022018150020E8140020C2
:10679000B30B0220D814002058850120B50C02202C
:1067A0000C860120B36D0C08FC850120D47B0C08FD
:1067B0002DE9F04F2DED028B884204460D469046A0
:1067C0001E4697B00AD1034601211D202E4A17B05C
:1067D000BDEC028BBDE8F04F9DF0D6BE9FED288B3F
:1067E0000DF10C092A21484605AF34F057F999E814
:1067F000030087E80300DFF894A0DFF894B0BDF849
:106800001620BDF814309A4204D117B0BDEC028BAB
:10681000BDE8F08F384634F01DF90AAB814696E8A2
:10682000030083E8030009AB08938DF824408DF83A
:1068300025508DF82680CDF81CA02BF0EDFD00230F
:106840000E938DF840308DF851302A23ADF83090FA
:106850004FF001090D930CAA6B4607A98DED128B21
:106860008DF850908FF058FD034620B15A464946A6
:106870001D209DF089FE384694F0C6FFBFE700BF9B
:1068800000000000000000007CE20C0888E30C0817
:10689000BCE20C08000000002DE9F0472DED028B52
:1068A0009FED2B8B9CB00DF108082A21054604AC06
:1068B000404616461F4634F0F1F898E8030084E895
:1068C0000300DFF89480DFF89490BDF81220BDF843
:1068D00010309A4204D11CB0BDEC028BBDE8F087A9
:1068E000204634F0B7F826A931F8083B0DF1380CF2
:1068F0008246ADF830300FC98CE80F0008AB079323
:10690000CDE90A670895CDF818802BF085FD0023A6
:106910002A228DF858308DF869300223ADF848A04E
:106920004FF0010ACDE9132306A96B4612AA8DED9B
:10693000188B8DF868A08FF0EFFC034620B14A4613
:1069400051461D209DF020FE204694F05DFFBCE7DF
:106950000000000000000000B0E30C0813E30C0886
:106960002DE9F04F2DED028B083085B00F46914692
:10697000DDF850809DF02BFE0446002800F09A8040
:106980006E4600259FED4E8B4FF0010B41F2A45A4D
:1069900010AB0FCB86E80F004B4BC4E902552360C8
:1069A000C4E90455C4E906552C336360474B04F130
:1069B000480C0FCB84ED0E8BC4E90C5584F82050A5
:1069C00084F840508CE80F00414B84F858B0A4F88C
:1069D0005AA0E56584ED188BA36604F17C03C4E935
:1069E0001F333C4B1022C4F890302946C4E91B5594
:1069F000C4E9255584F87450C4F88450C4F89C50F8
:106A000004F1A000A5F045F884ED2E8B84F8B0B019
:106A1000A4F8B2A0C4F8B45004F1C0009EF0CAFAC1
:106A20004AF6C873C82284ED368B84ED388BC4E9EE
:106A30003A2304F58273C4E93E55C4E94133A4F80E
:106A4000CC5084F8CE50A4F8D05084F80051C4F84B
:106A50000C513B68A3607B68E360BB682361FB6803
:106A600063613B69A3617B69E3613B7E84F820300D
:106A700033B104F1240307F11C0207CA83E80700BD
:106A8000384684F026FBA8B9B9F1000F12D0B8F14E
:106A9000000F0FD003CE3378C4F8309084F8403024
:106AA000012384F8F830231DA063E163C4F88880D3
:106AB000C4F89C30204605B0BDEC028BBDE8F08FD9
:106AC000000000000000000024090D0884BC012023
:106AD000A8C80D0814090D082DE9F04F2DED028B03
:106AE00000240025CBB09946CDE92E450023CDE901
:106AF0003045CDE934454FF6FF74DFF898A20646DD
:106B000088461746CDE90C338DF8C8303393CDF85D
:106B1000D8A04894A2B3054600F53474A54206D126
:106B20000B2420464BB0BDEC028BBDE8F08F28460D
:106B300084F0F4FB08B19035F0E79FED8F8BBDF842
:106B40005C318DF8C880ADF820318D4B4FF4C871A1
:106B50000E93002309A8CDE909330F93CDF870A057
:106B60000B9389F029FA099C14BB0B240BA884F021
:106B70008CF90AA884F089F909A884F086F9D0E78D
:106B800097F033F9044608B9AC24CAE706F5347522
:106B9000284694F081FBB4F882308DF8C880ADF8B7
:106BA000203121460CA894ED028B97F08BF8CCE7AE
:106BB0004FF4C8710AA889F0FFF9DDF828A0BAF1EE
:106BC000000FD2D04FF4C8710BA889F0F5F90B9AD9
:106BD000002ACAD04FF4C8734146CDE9133230467B
:106BE00010AA1094CDE9113A159397F05EF9044676
:106BF0000028BBD14146304612AA97F038F9044626
:106C00000028B3D14146304614AA97F00DF9044646
:106C10000028ABD110A916A889F0C4F912A918A8A8
:106C200089F0C0F914A91AA889F0BCF936AB07930A
:106C300030AB05930DF1B80A34ABCDE903A30DF1E8
:106C4000700B0EAB8DED008BCDF818B002931AAA25
:106C500018A916A838F028FC0446002886D10BA8ED
:106C600084F013F90AA884F010F909A884F00DF94A
:106C7000B9F1000F13D1D6F8640300285ED0036881
:106C80009B6898470346D6F86403002B4ED00368F0
:106C90005A4641465B699847044688B141E7D9F8AE
:106CA000003048465B699847594697F0CEFB08B9D3
:106CB000C52436E79DF85831CDF8CC908DF82231B7
:106CC0009DF860315146B3FA83F328465B098DF88D
:106CD000233197F03EFB044600287FF422AF28467C
:106CE0000CA997F034F806F55D7495F881303FB340
:106CF00002211120234A9DF047FCD5E900122B699F
:106D0000CDE9012100936B69022111201E4A9DF0FB
:106D10003BFC20460F993AF081FB034630BB96F8C6
:106D20008233013386F882330024FAE60368414651
:106D3000DB6898470028C3D11024F2E60324F0E66C
:106D4000D5E900121120CDE9002102210F4A9DF062
:106D50001BFC20460F993AF061FB03460028E3D064
:106D6000012111200A4A9DF00FFCDDE701211120CD
:106D7000074A9DF009FCD2E7000000000000000077
:106D8000D8690D0803690D0823690D0866690D08A7
:106D90009B690D0800980D082DE9F0478AB00DF1A8
:106DA0000D0301931523064600934FF480720023D0
:106DB00008460C469CF0D7FCE8B996F892300122C0
:106DC0000093204600239CF055FCA0B996F8933020
:106DD00002220093204600239CF04CFC58B90DF190
:106DE0000E030193162303220093204600239CF0F8
:106DF000BAFC054610B10AB0BDE8F0874FF01009A3
:106E000006F1C8070DF11808102200214046A4F031
:106E100040FE0DF10F03019315234FF48072009390
:106E2000204600239CF09FFC0028E4D196F8932094
:106E3000EBB29A4251D917ED0C7BC44637F828AC17
:106E4000A7F12603A7F1160E6246186859680833A1
:106E500003C273459446F7D18DED007B04220023D5
:106E600020469CF0E2FB0028C5D1052200232046E5
:106E7000CDF800A09CF0FEFB0028BCD1404649465E
:106E800006228DE8030000232046CDE904899CF00A
:106E90003DFD0028AFD120469DF90F109CF098FCD5
:106EA000013530370028A6D1032DADD120469DF9FC
:106EB0000E109CF08DFC00289DD1B6F88A30072278
:106EC0000093204600239CF0D5FB002893D1204658
:106ED0009DF90D109CF07CFC8DE782469FED027BB6
:106EE000BAE700BFAFF30080000000000000000020
:106EF000054B18680368D96901A3D3E90023084743
:106F000000E0373B015D0300702C02200000000010
:106F10002DE9F04FC76997B08346209E08910C92E7
:106F2000129355EC104B8DED000B7FB910204EF0F5
:106F3000B9F90246CBF81C0020B9A74BEF21A748AE
:106F40004EF0C0F9C0E901770760C760DBF81C307C
:106F5000196859B15A680123584693404A608B60BA
:106F60004EF0F8FBDBF81C3000221A602B1EB7BF76
:106F700023F00043002301220193A8BF3360019F47
:106F8000974BB8BF3260BB4319D142F20F73129ACC
:106F90001360C7F31303234300F0DB85219B53B930
:106FA000904B21E0904B03930833219A1360039890
:106FB00017B0BDE8F08F8B4B03930333F5E79DEDDE
:106FC000007B0022002351EC170B8DED0A7B4CF067
:106FD00007FF804650B10123129A1360219B13B121
:106FE000824B219A1360824B0393E0E7C7F30A5662
:106FF00014AA15A958469DED0A0B4EF033FE0290D7
:10700000002E76D00B9BA6F2FF36CDF84C80C3F352
:10701000130343F07F53DDE90A0143F4401319469B
:107020000022744B4CF0BCFA65A3D3E900234CF06A
:107030006FFC65A3D3E900234CF0B4FA04460D4677
:1070400030464CF0FBFB62A3D3E900234CF060FC1C
:1070500002460B46204629464CF0A4FA04460D464B
:1070600073F0E2FA002207460023204629464CF03E
:10707000C1FE40B138464CF0E1FB22462B464CF0B5
:10708000AFFE00B9013F162F52D85B4B03EBC7038D
:10709000DDE90A01D3E900234CF0ACFE002849D019
:1070A000013F00231193149B9B1B5A1E4CBFC3F13D
:1070B00001030023079245BF06930023069307931D
:1070C000002F39DB079B10973B440793002309935C
:1070D000089B092B66D8052BC5BF043B002401245F
:1070E0000893089B023B032B67D8DFE803F02D3A97
:1070F0003859DDE914631E4406F23243202BC9BF20
:10710000C3F14003C3F120039F4006F21243D8BFEE
:1071100004FA03F006F1FF36C4BF24FA03F347EA8A
:1071200003004CF07BFB0122A1F1F873139276E788
:107130000123B7E71190B6E7069BDB1B06937B4262
:10714000099300231093C3E700230D930C9B002B9E
:1071500056DC012399461A4604930C920CE0012355
:10716000F3E700230D930C9BFB1803F10109049333
:107170004B46012BB8BF0123DBF81C000021042281
:1071800002F114059D423FD9416058464EF0A2FAE3
:10719000039000283BD1194B024640F2AF11CEE6D6
:1071A0000123DFE7012400230D9408934FF0FF3300
:1071B0000022994604931223CFE701230D93F5E7AC
:1071C00061436F63A787D23FB3C8608B288AC63FED
:1071D000FB799F501344D33FEDDA0D08D6DC0D0840
:1071E0000000F07FD2DC0D08C9DC0D085CCC0C0877
:1071F0005BCC0C080000F83FA8DB0D085EDB0D0837
:107200000C9B99460493B7E701315200B8E7DBF8CD
:107210001C30B9F10E0F039A1A606FD8002C6DD094
:10722000002F36DD07F00F02A04BF8054FEA2714B8
:1072300003EBC20393ED007B8DED0E7B17D59C4BCA
:1072400004F00F044FF00308D3E90823DDE90A0135
:107250004CF088FCCDE90001954D5CB9DDE90E23C9
:10726000DDE900014CF07EFCCDE900012BE04FF0A0
:107270000208F1E7E10709D508F10108DDE90E018F
:10728000D5E900234CF044FBCDE90E01641008352C
:10729000E3E700F007817C42844B854D4FF0020804
:1072A00004F00F02241103EBC203DDE90A01D3E964
:1072B00000234CF02DFB0023CDE90001002C40F011
:1072C000E580002BD0D1119BDDE90045002B00F0BB
:1072D0004C810022774B204629464CF08BFD00283C
:1072E00000F04381B9F1000F00F03F81049B002BB7
:1072F00000F3E480DDE90A34CDE90034159B002B6E
:1073000002DB0E2F40F342820D9A002A40F0678282
:10731000099C0025DDF81880B8F1000F0DD0079BFF
:10732000002B0ADD4345069AA8BF4346D21AA8EBB4
:1073300003080692079AD31A0793099B0BB30D9B78
:10734000002B00F0A682002C00F0A18229462246E4
:1073500058464EF029FB029A0146054658464EF023
:1073600079FA0299064658464EF0F4F9099B1B1B20
:10737000099300F09182099A314658464EF014FB69
:107380000290012158464EF04FFA109B0446002B04
:1073900000F084821A46014658464EF005FB089BD1
:1073A0000446012B03DC009B002B00F07C820026AE
:1073B000236904EB83031869A4F016FAC0F12000D6
:1073C0001096079B184410F01F0000F09182C0F146
:1073D0002003042B40F38182C0F11C00069B034470
:1073E00080440693079B03440793069B002B05DD0F
:1073F0001A46029958464EF031FB0290079B002B2B
:1074000005DD21461A4658464EF028FB0446119BDE
:10741000002B00F0768221460298A4F034FA00286E
:1074200080F26F8200230A22029958464EF0B4F986
:107430000D9B7E1E0290002B00F05C8200232946EB
:107440000A2258464EF0A8F9049B0546002B03DC9F
:10745000089B022B00F35E82B8F1000F05DD294680
:10746000424658464EF0FAFA0546109B002B00F0B3
:10747000D082696858464EF02DF90746002840F042
:107480007F820D4B024640F2EF2158E5E20706D518
:1074900008F10108D5E900234CF03AFA0123641001
:1074A00008350BE74FF002080DE700BFA8DB0D0819
:1074B00080DB0D080000F03F5EDB0D082046002257
:1074C000AC4B29464CF024FA7E1E08F10108049CBE
:1074D000CDE9000140464CF0B1F9DDE900234CF064
:1074E00017FAA54B00224CF05DF8A1F15073CDE9DD
:1074F0000E010F93002C3BD10022A04BDDE90001CF
:107500004CF04EF802460B46CDE90023DDE90E2390
:107510004CF08EFC002840F05781DDE90E2101F18E
:107520000043DDE900014CF065FC00283FF4E2AEC9
:10753000002425460C9BDDF80CA0DE434FF000082C
:10754000214658464EF006F9002D00F0A980B8F10A
:10755000000F05D0A84503D0414658464EF0FAF832
:10756000294658464EF0F6F89AE03E464C46B1E7BA
:10757000834B03EBC40353E90201039B1C440D9BA3
:10758000002B4AD002460B4600207E494CF0EAFA16
:10759000DDE90E234CF004F8DDF80CA0CDE90E0176
:1075A000DDE9000173F040F805464CF047F902466A
:1075B00030350B46DDE900014BF0F2FF0AF8015BC4
:1075C00002460B46CDE90001DDE90E014CF030FC2E
:1075D000002865D100206C49DDE900234BF0E0FF75
:1075E00002460B46DDE90E014CF022FC002840F07B
:1075F0000D81A24500F0EA8000225E4BDDE90E011C
:107600004CF086F900225B4BCDE90E01DDE900016B
:107610004CF07EF9CDE90001C2E7DDE90E234CF024
:1076200077F9A046DDF80CA0CDE90E01DDE90001F7
:1076300072F0FAFF05464CF001F9024630350B4670
:10764000DDE900014BF0ACFF0AF8015B02460B4696
:10765000A245CDE900234FF0000223D1494BDDE9DB
:107660000E014BF09FFF02460B46DDE900014CF096
:10767000DFFB002840F0CA8000204249DDE90E23EC
:107680004BF08EFF02460B46DDE900014CF0B2FBE9
:1076900070B1C24608F1FF381AF8013C302BF8D01F
:1076A000374655E0334B4CF033F9CDE90001BDE7E7
:1076B000DDE90A34CDE90034159B002BFFF628AE36
:1076C0000E2F3FF725AE2E4B03EBC70393ED007B48
:1076D0000C9B002B8DED047B02DAB9F1000F64D016
:1076E000DDF80CA0DDE90045DDE90423204629464C
:1076F0004CF038FA72F098FF06464CF09FF8DDE93E
:1077000004234CF005F90246204606F130040B46EE
:1077100029464BF045FF0AF8014B039C02460B46F5
:10772000AAEB0404A14540F082804BF03BFF0446E5
:107730000D46DDE904234CF07BFB002865D1204693
:107740002946DDE904234CF04BFB08B1F3075CD478
:10775000029958464DF0FEFF002301378AF80030A9
:10776000129B1F60219B002B3FF421ACC3F800A0AB
:107770001DE400BF0000244000001C400000144035
:10778000A8DB0D080000E03F0000F03FA24B03EB38
:10779000C70393ED007B0C9B002B8DED047B9FDAE0
:1077A000B9F1000F9CDC7FF4C3AE00229B4BDDE9F6
:1077B00004014CF0ADF8DDE900234CF02FFB04464A
:1077C00000287FF4B5AE3E462546B4E0DDE90A3434
:1077D000CDE90034159B002B01DB0E2FD6DD089A76
:1077E000012A36DC139A82B303F23343099CDDF895
:1077F0001880069A012158461A440692079A1A449C
:1078000007924EF011F8054686E53E4653469A46E5
:1078100013F8012D392A06D1039A9A42F7D1302262
:10782000039901360A701A7801321A7038E700227B
:107830007B4B4CF06DF80022002304460D464CF0C3
:10784000CFFA00283FF450AF82E7149BC3F1360310
:10785000CCE709F1FF34099BA34208DBB9F1000F23
:10786000A3EB04040EDBDDF818804B46C1E7099B4F
:10787000109AE31A0994DDF8188000241A444B4644
:107880001092B6E7069BA3EB09080023B1E7029E1E
:1078900071E5099A029970E5029672E5089B012B41
:1078A00017DC009BABB9019BC3F313039BB9019B8E
:1078B00023F00046360D360536B1069B012601330E
:1078C0000693079B01330793109B002B7FF470AD49
:1078D0001096012075E50026F6E73FF486AD1C33CF
:1078E000069A1A4498440692079A1A4407927CE52D
:1078F0000346F4E7049B002B2BDC089B022B09DCDE
:1079000027E0B9F1000F1DDC089B022B1ADD3E4673
:10791000CDF81090049B002B7FF40CAE214605227D
:1079200058464DF039FF014604460298A3F0ABFFDC
:1079300000287FF7FFADDDF80CA0312301360AF8EF
:10794000013BFBE50D9B3E46CDF81090002B7FF4EC
:1079500083AD039F21460298A3F0B0FF039B00F183
:107960003009049A07F8019BFB1A9A4240F3CB8036
:1079700000230A22029958464DF00EFF0290E9E7D3
:107980002A6905F10C010C3002329200A3F03AFE94
:107990000122394658464EF061F8039BA846054639
:1079A00003F1010ADDE9032313440793009B03F06D
:1079B000010309930AF1FF33214602980493A3F0CF
:1079C0007DFF4146069000F130090298A3F05BFF6D
:1079D0002A462146074658464EF0ACF8C268014692
:1079E00002B358464DF0B6FE002F3ADA0122029952
:1079F00058464EF033F821460290A3F044FF002889
:107A000003DC29D119F0010F26D0B9F1390F1DD1AE
:107A100032E02846C1E700BFA8DB0D080000144093
:107A2000000024400A900298A3F02DFF0A990C90C0
:107A300058464DF08FFE0C9A5ABB089B53B9099BD0
:107A400043B9B9F1390F17D0002F05DD069B03F1BB
:107A5000310901E0002F2ADADDF810A00AF8019BB5
:107A60006EE5089B3B4304D1009B03F00103002B10
:107A7000BCD0B9F1390F36D1049F392307F8013B47
:107A8000BA46013F1AF8013C392B5AD001333B70FA
:107A900056E5002F06DB089B3B4306D1009B03F015
:107AA000010313B9002AA1DCD6E7002AE1DC079B19
:107AB00057460AF8019C53452ED000230A2202990A
:107AC00058464DF069FEA84502904FF000034FF074
:107AD0000A02414658460BD14DF05EFE80460546EF
:107AE0000AF1010A66E7DDF810A009F10109B5E71E
:107AF0004DF052FE2946804600230A2258464DF09A
:107B00004BFE0546ECE7049B4FF00008002BCCBF72
:107B10001F460127039B1F440122029958464DF03E
:107B20009DFF21460290A3F0AEFE0028A8DC02D102
:107B300019F0010FA4D1BA4617F8013D302BFAD045
:107B4000FEE4039BBB429BD13123039A01361370A1
:107B5000F6E4219B002B7FF425AA014BFFF744BAE2
:107B6000C9DC0D0800000000002370B5424C05463A
:107B70008AB0E36318B10088236053F09DFF54F08E
:107B80000BF93E48B8F0FFFA3D4E3E4B30463360AD
:107B90003D4B73604FF0FAFA0021304668F09AFBD3
:107BA00033A3D3E90023A062C4E90623A7F086FA31
:107BB000D4E9062319431043C4E90601CDE90001C5
:107BC0004FF0FF334FF0FF32A06AB8F0E0FB022223
:107BD0004FF0FF31A06AB8F0F4FB012053F0F0FC45
:107BE0004FF4007300222949A06AB8F0A8FDB0F54F
:107BF000007F39D100239422079309933C23CDE9D8
:107C000003320593962306935023A06A03A9089391
:107C100068F0EAFF35B3287C54F0D0F80546F0B997
:107C2000A06AB8F07DFF54F057F953F0ABFC20B1D7
:107C30004FF48070002151F0EFFC53F0B3FC20B101
:107C40004FF40060002151F0E7FCA7F0FFFA01209B
:107C5000B8F010F90E4A0F49A06AA7F023FA284697
:107C60000AB070BDFF20D7E70725F8E7AFF3008023
:107C70000DD5015520000000E0020120690345EC0C
:107C800014020220F9B30508240202201400022085
:107C90004DF00A088DF00A080348044B834202D0D5
:107CA000034B03B1184770473035022030350220AE
:107CB00000000000064B0749C91A891048BF01316E
:107CC000491003D0044B0BB101481847704700BF5F
:107CD00030350220303502200000000010B5064C7F
:107CE000237843B9FFF7D8FF044B13B10448AFF32F
:107CF00000800123237010BD600A022000000000F4
:107D000008420E0808B5054B1BB105490548AFF3FD
:107D10000080BDE80840FFF7CDBF00BF00000000B5
:107D20005051012008420E08A3F5803A704700BF69
:107D3000174B002B08BF134B9D46FFF7F5FF0021A3
:107D40008B460F461348144A121AA3F0A2FE0E4B9C
:107D5000002B00D098470D4B002B00D098470020F7
:107D6000002104000D000D48002802D00C48AFF39C
:107D700000804CF01BFB2000290005F081FF4CF037
:107D800077FA00BF000008000000000000000000BB
:107D900008120020081200208024022000000000A9
:107DA0000000000000230246194601480AF09ABA72
:107DB00000C0055010B500240E4B186873F0A5F9EB
:107DC0000D4B0122C3F820470421C3F83847022095
:107DD000C3F83047C3F82847C3F82C4723460AF0B6
:107DE000B9F82346BDE810400122052102200AF01F
:107DF000B1B800BF7051012000C0035002460021FD
:107E0000014809F017BF00BF0000015B10B5002456
:107E10000E4B186873F079F90D4B2046C3F8944463
:107E20000122C3F8AC440421C3F8A444C3F89C4421
:107E3000C3F8A04423460AF08DF823462046BDE847
:107E40001040012205210AF085B800BF68510120C9
:107E500000C00350084B1A68084B1A60084B1A6898
:107E6000084B1A60084B1A68084B1A60084B1A68CE
:107E7000084B1A60704700BF082802207451012087
:107E80001828022070510120F42702206C51012093
:107E900004280220685101200348044B044A054984
:107EA0000360A2F00EBF00BF7851012050720C0891
:107EB0005C26022029B107084B88042B07D1836C6C
:107EC00008885B8998428CBF002001207047002001
:107ED000704720B9064B1B6833B9184607E00368A2
:107EE000002BF7D05B68F7E7986C0028FAD0704752
:107EF0000812002068B13F290AD800EBA10090F8D1
:107F0000310001F003014900084100F0030070470F
:107F100000207047037A23B1013B012B06D90020D2
:107F20007047C3681888023080B27047C3685888A9
:107F30000630F9E70E4B10B55968CC0714D4DA8A2D
:107F40009C8A944210D949071C6948BF996A24F851
:107F50001200DA8A4ABFC8891046801802F101026D
:107F600048BF80B2DA8210BD4FF6FF70FBE700BF5A
:107F70000812002070B5124C0146636813F0040328
:107F800005D00022A56AEB8990B2834208D800226E
:107F9000E46AE58990B2854209D84FF6FF7005E0A2
:107FA000AE6836F8126001328E42EDD170BDA6681F
:107FB00036F8126001328E42ECD1034498B2F5E7F4
:107FC00008120020084B5A68520709D5996ACA89D5
:107FD000824203D98B6833F810007047801A80B250
:107FE000DB6A9B68F7E700BF0812002010B5044663
:107FF000FFF7C0FF4FF6FF73984203D12046BDE85C
:10800000104097E710BD0D4AF0B50146D48990683D
:10801000002300EB041006460B27158E05EB030C1E
:1080200001339BB28B42A6F800C0777206F11006AE
:10803000F4D30D440C441586D481F0BD0812002001
:10804000437ADA0702D5C3F380007047034BC28836
:108050005B8E1A4214BF01200020704708120020D6
:10806000094B5A68D20707D560B1DB6ADB888342C7
:1080700034BF00200120704720B11B8E834294BF83
:1080800000200120704700BF0812002070B5014693
:10809000FFF7E6FFE8B10F4BDA6AD5888D4209D3C6
:1080A00001F1805013680138040103EB00101B5BE1
:1080B0008B420ED0002398B2854201D8002008E000
:1080C00016681C01345B06EB03108C4203F10103BC
:1080D000F1D170BD0812002008B5FFF7D7FF08B135
:1080E000FFF7AEFFC0B208BD08B5FFF7CFFF18B16C
:1080F000007AC31F5842584108BD884270B50446F3
:108100000D46164611D8012838BF01242046FFF736
:10811000BDFF10B14388B34208D00134A4B2204659
:10812000FFF79EFF20B1A542F0D20024204670BD8B
:108130000446FBE74B88052B05D108880E288CBF29
:108140000020012070470020704700207047002069
:1081500070477047054A0346106800B97047B0F889
:108160006E209A42FAD04068F7E700BF081200205C
:10817000054A0346106800B9704790F870209A428B
:10818000FAD04068F7E700BF08120020034B93F8CD
:108190003420034B53F82230184700BF0812002048
:1081A00068720C0810B5044650B90120FFF7EEFFC5
:1081B0000122044B204683F83420BDE81040E5E757
:1081C00010BD00BF0812002010B5411D441E002044
:1081D00014F8013F5A0802F055029B1A03F03302CB
:1081E000C3F3850303F03303134403EB131303F0CA
:1081F0000F03A1421844EBD110BD70477047704780
:1082000070477047704770477047704770477047B6
:10821000084A034692F88210814209D9906D40B114
:1082200003EBC30300EBC300406A00F0010070479A
:10823000002070470812002038B504460D46FFF7AD
:10824000E7FF034640B10020044B04EBC4049B6DE0
:1082500003EBC4032B6038BD2120FBE7081200208C
:1082600037B5044648B104782046FFF7D1FF10B96E
:10827000002003B030BD0134E4B2074D95F88230E0
:10828000A342F5D9204601A9FFF7D6FF08B9019806
:10829000EFE70134E4B2F1E7081200200020704754
:1082A000030400D48EE60020704701302DE9F04130
:1082B00085B228460E46FFF7E9FE42F6021704464D
:1082C00042F603081CB12046FFF7BAFE10B94FF082
:1082D000FF3008E06088FFF7E3FFB84205D10EB138
:1082E00023883380607BBDE8F0814045EFD00135C5
:1082F000ADB22846FFF7CAFE0446E3E72DE9F04792
:1083000007460E4690460D4642F6021942F6030A0B
:108310000135ADB22846FFF7B9FE044678B1FFF744
:108320008FFE60B16088FFF7BBFF484505D1237A17
:10833000072B04D10320BDE8F0875045E8D1414622
:108340003046FFF7B2FF431C014603D03846BDE874
:10835000F047CFE50020EEE72DE9F0410E46154647
:1083600042F603080130A2F5205784B2BFB220467E
:10837000FFF78CFE18B9013CA0B2BDE8F08140883F
:10838000FFF78EFF45450CD1A842F4D00134A4B2CA
:108390002046FFF765FE08B1B442E8D94FF6FF70FA
:1083A000EBE7012FF2D8A0F5205080B20128EDD8DC
:1083B000E1E708B5FFF774FFA0F5205080B201286F
:1083C0008CBF0020012008BD90F87430DB0706D474
:1083D00090F97530013314BF0F200520704700203D
:1083E000704770B5054608461446FFF74FFE014634
:1083F000002859D0FFF724FE002855D0E60710D5F5
:108400008A88D00752D512F0700F02F020062DD1C5
:10841000002E30D1560604D52B6893F97530013300
:1084200048D0A00702D58B889A0741D5630702D5AB
:108430008B885E073CD514F0060F0DD08A8812F4A5
:10844000E06F02F4007620D12EBB530504D52B68D3
:1084500093F9753001332DD014F4006014D08B885B
:1084600013F4006F14BF002006200DE02868FFF70A
:10847000ABFF3EB140B92B6893F874309B07C9D469
:10848000052001E00028C5D070BD2868FFF79CFFDB
:108490003EB10028F8D12B6893F874309807D4D4F3
:1084A000EEE70028F0D1D0E70120EDE70220EBE76E
:1084B0000320E9E70820E7E72DE9F341D0F8016060
:1084C000D0F80550B0F8097090F80B8001A9007839
:1084D000FFF7B2FE0446E8B9019B5A6A91050BD436
:1084E0004FF6DF71A6F1200088421AD8A5F12000CE
:1084F000884216D8AE4214D8D9698E4202D1196A80
:108500008D4204D0C3E9076542F002025A6283F843
:1085100030809F85044854F03FF9848002B0BDE864
:10852000F0812124F6E700BF2002040313B5007890
:1085300001A9FFF781FE0446B8B9019A536A13F006
:10854000100418D1590410D50C4923F48043D1F8F4
:10855000670043F00803C2F80100B1F86B0091F81E
:108560006D10A2F80500D1715362054854F014F95A
:10857000848002B010BD0224F7E700BF081200207B
:108580002002041110B50C4601041BD5114BC0F399
:108590000E005A68520712D5996ACA8A90420CD2C4
:1085A0000B6903EB001000F1100350F8042B984204
:1085B00044F8042BF9D1102010BD801A80B2DB6A78
:1085C0001B69EEE7FFF7FEFC2070000A60700220D6
:1085D000F2E700BF0812002070B5164600221A709C
:1085E00032800A7A0D46072A56D8DFE802F0040ADC
:1085F0000E121A1E3353EC6834F8022B32802046D8
:1086000070BDEA68941D5288F8E7EA68941D928864
:10861000F4E7697BFFF76EFC204C022224F8A80FD8
:10862000ECE702231E4C3380E9E71C4C2B7B04F162
:10863000AD0184F8AA302B88E889013384F8AB3087
:108640002B88AA3401331B12A370FFF79BFF033062
:108650003080D4E7114CA889EB89020A84F8BF3036
:108660001B0A84F8BD0084F8BE2084F8C030FFF7F0
:108670000DFD68B1C3681A88022A09D19A7884F876
:10868000C120DB7884F8C2300623064C3380B6E77D
:108690000423FAE780221A700024B0E708120020B1
:1086A00070720C08C51200200B68FF2A03608B88CB
:1086B000838002D1072383717047032A0AD8064BAF
:1086C0001A44D27A072A8271F6D1427903EB9213C7
:1086D000DB7BF0E70023EEE768720C0837B5044651
:1086E00068464A790D460631FFF7DEFF03C8A4F855
:1086F0005010090C11F0800FE06484F8521004F15E
:10870000530312D00122184605F11201FFF7CCFFE6
:108710000C352846FFF758FD80B10122294604F1A7
:108720005A0003B0BDE83040BEE7B4F8501094F8EA
:108730005220C4F8530099809A71E9E703B030BD24
:108740008378132B02D10846B8F0A3BF704770B5E9
:1087500006460D4614467AB90A4620460821B9F065
:1087600042F9044690B92A4608212920B9F03BF97C
:10877000044658B9204670BD1046B8F08AFF20461E
:10878000B9F0B7F808231D44A371E571A3790C3340
:108790001C442670EEE72DE9F0411646069A07467E
:1087A00088461D46FFF7D3FF0446F0B114382A4629
:1087B00031460690B9F054F9854217D9069B06A8B0
:1087C0001C7904F02004B8F064FF74B94246082113
:1087D0002920B9F008F92A4631460690B9F040F947
:1087E000854206D906A8B8F054FF00242046BDE80B
:1087F000F081069A93790C33D418D754F6E71FB555
:1088000050F80C4BADF80A3094F87040069BADF868
:1088100006108DF8082040F2035101AA8DF804409B
:108820000393B8F06BFE10B906A8B8F032FF04B09D
:1088300010BD1FB550F80C4BADF80A3094F87040DD
:10884000BDF81830ADF806108DF8082040F204513C
:1088500001AA8DF80440ADF80C30B8F04FFE04B01A
:1088600010BD1FB590F8703040F203118DF8043040
:1088700090F8743003F00B03013BDBB20A2B8FBF7F
:1088800000230C4A9B18DB7C01AA8DF80C30B0F851
:108890006230ADF80630B0F86430ADF80A30B0F8A8
:1088A00066300548ADF80830B8F028FE05B05DF830
:1088B00004FB00BF68720C08CC12002007B5837857
:1088C00001916A46082104488DF80030B8F016FE80
:1088D00003B05DF804FB00BFCC1200201FB590F878
:1088E0007420044602F0010301908DF808300BB1AA
:1088F00002F002038DF8093094F87530039101AA53
:108900004FF4017120468DF80A30B8F0F7FD20468B
:10891000FFF7A7FF04B010BDF8B5214C0746B4F827
:10892000CC60B4F8CE30F31A834221DAB0F5FA7F86
:108930002CBF361806F5FA76B6B2304672F06EFBEA
:108940000546E8B1D4F8C810B4F8CE20A2F05AFE1B
:10895000D4F8C800A368E189A5EB000C03EB011172
:108960008B420FD1B9F005F9C4F8C850A4F8CC6017
:10897000B4F8CE30D4F8C8501D443B44A4F8CE30EF
:108980002846F8BD5A7A920704D51A7A22B1013ADC
:10899000012A01D91033E3E7DA686244DA60F9E7C3
:1089A000081200202DE9F041254C8846A58AE38A6B
:1089B0001646EB1A834213DA0A35ADB2680072F03C
:1089C0002DFB074610B90020BDE8F081E28A21693D
:1089D0005200A2F017FE2069B9F0CBF82761A582FA
:1089E000A58BE38BEB1A434511DA0A35ADB22801AA
:1089F00072F014FB07460028E5D0E28BA169120152
:108A0000A2F000FEA069B9F0B4F8A761A583A5891A
:108A1000E389EB1AB34211DA1435ADB2280172F0D2
:108A2000FDFA06460028CED0E289A1681201A2F024
:108A3000E9FDA068B9F09DF8A660A5810120C3E713
:108A40000812002010B50F4CD4F8C80030B1B9F0AE
:108A500090F80023C4F8C830A4F8CC30A06818B14E
:108A6000B9F087F80023A360206918B1B9F081F844
:108A700000232361A06918B1B9F07BF80023A3613A
:108A800010BD00BF0812002038B5046805460C224E
:108A900020460849A2F0D3FF50B90222064904F14A
:108AA0000E00A2F0CCFF18B902200C342C6038BDA7
:108AB0001020FCE786720C0894720C082DE9F7432D
:108AC000102801910BD0022804D04FF6FF7003B09C
:108AD000BDE8F083019B1888FFF74CFAF7E701A87F
:108AE000FFF7D2FF0228F5D01028EED1DFF86C8016
:108AF000019FD8F8046016F0040607D00024D8F8C7
:108B00002890B9F81660A5B2AE4219D80025D8F859
:108B10002C80B8F81690ACB24C45D6D2D8F81000DC
:108B2000102200EB05103946A2F089FF013500281C
:108B3000F1D1A0196FEA40406FEA504080B2C6E719
:108B4000D9F81000102200EB04103946A2F077FF8C
:108B500001340028D7D145F40040B8E708120020BE
:108B600007B5ADF8040001A90220FFF7A7FF4FF6F3
:108B7000FF718842024605D0012003B05DF804EB86
:108B8000FFF7BBBA002003B05DF804FB2DE9F04706
:108B90004FF00009044683F800900846A2F80090C0
:108BA000884616461D46FFF771FA074618B1A4B16C
:108BB000FFF746FA20B9012300202B70BDE8F087AB
:108BC00042F62930FFF7CCFF804506D1012385F816
:108BD000009004F120003380F0E72B4632463946FE
:108BE0002046BDE8F047F7E410B50D49837991F8C8
:108BF0006D400C4A04F0070403F0070313442244B9
:108C000093F82E4092F82E309C4207D1062267310D
:108C1000A2F015FFB0FA80F0400910BD0020FCE77B
:108C20000812002068720C08F8B51C4E0446324643
:108C30000D4652F8D03F63B393F87D10586811F099
:108C4000040128D110608C22184693F87070A2F0AD
:108C500020FF034680F870702268C0F85A20A2886E
:108C6000A0F85E20A27980F860202868D864AA79EC
:108C7000A98883F85220FF2283F8752083F8762094
:108C800040F6FF72A3F86E203268A3F850105A60C5
:108C900033601846F8BD1A1D0346CCE708120020C1
:108CA00038B505464FF4FA7072F0B8F9144CC4F8B0
:108CB000C800E0B14FF4FA732022002104F108004B
:108CC000C4F8CC30A2F0E5FE280172F0A7F9A0604C
:108CD000142072F0A3F92061A02072F09FF9A3681C
:108CE000A06113B1236903B118B9FFF7ABFE0020EF
:108CF00038BD0A23A581A382A38304F10800F7E706
:108D0000081200202DE9FF4145780446FE2D6DD163
:108D10000025D0F80200E3880290ADF80C30464BF5
:108D20001D4495F83620D1068DF80E2009D59DF802
:108D30000D1003EB9113DB7B93421CBF00238DF8D6
:108D40000E304FF0FF339DF80E100093ADF8043055
:108D5000CB0609D53F2353298DF8053002BF0023E8
:108D6000ADF800308DF80230002302AFEE46184611
:108D70001E463D461EF8012B17F801CB013602EACC
:108D80000C08062E22EA0C0240EA080043EA02031D
:108D9000F0D1002845D0002B43D011F0180F40D05F
:108DA00020786946FFF748FA044698B9009A536A52
:108DB00013F0100437D1029823F40043A979C2F8C4
:108DC000010043F48043A88843F00803A2F805009B
:108DD000D1715362194853F0DFFC03468480BDF81B
:108DE0000C2002985A81C3F806000CE075B91348AC
:108DF00053F0D2FC212345710371D4F80230C0F83E
:108E00000630E388438104B0BDE8F081022D0CD028
:108E1000D0F80200E388052D0290ADF80C307FF603
:108E20007EAF212402E00224D4E70F240023029322
:108E3000CDF80B30CEE700BF68720C082008041094
:108E400070B50446084BDB6ADA881D6805EB02152D
:108E500026461034AC4204D06088FFF7AAFA0028F6
:108E6000F6D0304670BD00BF0812002008B550F0A3
:108E700005F983790C33184408BD08B5FFF7F6FFF0
:108E8000407940F4805008BD38B50C46054650F096
:108E9000EFF84379C47523F0030343F003034371F0
:108EA00009230C348371C471A0F81550153038BDF6
:108EB000F8B507460E4642F213000E2115461C4631
:108EC000FFF7E2FFB7F86E30A0F80560A0F80330B6
:108ED000BDF81830A0F80750A0F80B30BDF81C30D2
:108EE000A0F80940A0F80D30BDF82030A0F80F30F0
:108EF000064850F0E5F8FFF7B9FF807820B1FFF79A
:108F0000B5FF807840F48050F8BD00BF0FDE0A083E
:108F100038B590F872300446032B0D460CD1002171
:108F200042F20E00FFF7B0FF114850F0C9F80123DC
:108F3000002084F8723018E0012B17D9032140F289
:108F40000640FFF7A1FFB4F86E304571A0F803307A
:108F5000084850F0B5F8FFF789FF8378002BE6D07A
:108F6000FFF784FF807840F4805038BD0220FCE792
:108F700083DE0A0897DD0A0810B50078FFF7F8F8D5
:108F800040B11321FFF7C4FF0446034853F004FC2B
:108F9000848010BD2524F8E720020605F8B50023DB
:108FA00005460127204E346886F8D830002C38D08A
:108FB00094F872305DB301251C4E1D4F032B0AD16E
:108FC000002142F20E00FFF75FFF384650F078F8BC
:108FD00084F8725000E023B9646814B394F87230D6
:108FE000ECE702214FF60440FFF74EFFB4F86E3075
:108FF000A0F80330304650F063F8FFF737FF4379AD
:10900000002BE5D0FFF732FFE6E794F872304BB162
:109010002046132186F8D870FFF77AFF6468002C89
:10902000F3D1F8BD6468C1E708120020CDDD0A085D
:1090300083DE0A082DE9F04F0446504A8BB0D06B0E
:10904000116C07AB03C3506C0AAA1860E37B94F859
:109050002E7002EB430333F80C5C636A94F82F60C4
:10906000DA047AD40126374645F01005C3F3404BA5
:109070005B0394F8313048BF4BF0020B0193A37BA4
:10908000012F83F00803C3F3C003029304F1080324
:10909000039394F9323094F800A0ADB20493D4E96C
:1090A000079805D0022F03D0042F14BF00270327F1
:1090B000012E05D0022E03D0042E14BF0026032655
:1090C000504606A9FFF7B8F8002854D1069B5B6A02
:1090D000C3F3C023192142F236000593FFF7D4FEF3
:1090E0004FEA1921C1714FEA182181720121002232
:1090F000019B80F806900373029B80F809804FEA79
:1091000019494FEA1848837380F803A0858080F8D6
:10911000089080F80B804173A168039BC0F80F1082
:109120009988049BA0F813108375059B0276C3767B
:1091300080F815B0C775467680F81AA010484FF031
:10914000BFFFFFF793FE407920B1FFF78FFE407914
:1091500040F480500BB0BDE8F08FA26A900648BF83
:1091600045F02005510648BF45F04005DA0348BFE9
:1091700045F004057AE70023ACE700BF68720C08ED
:109180008D91050838B50023154991F88240886D06
:10919000A34202DBFF251A2419E0426AD5071CD43A
:1091A00090F839506D0718D4DDB2034603F8015B1F
:1091B000D1F867100B4CC0F80110A18842F00902E9
:1091C0009980A17999714262FFF734FF04460648FD
:1091D00053F0E2FA8480857138BD01334830D7E717
:1091E000081200206F12002020030401F8B5064683
:1091F0000F4642F23900062114461D46FFF744FE91
:1092000001238471240A0371C7704671C471057209
:1092100005484FF055FFFFF729FE407910B1BDE832
:10922000F8402AE6F8BD00BF8FDC0A0838B5204DAB
:10923000EB6D5A0721D595F8832005F1600305F100
:109240006704012A08BF1C46A37906211B071AD50B
:109250004FF62840FFF718FE2368C0F80330A388B4
:10926000A0F8073013484FF02BFFFFF7FFFD4379BD
:1092700023B9EB6D23F00403EB6538BDFFF7FDFD6B
:109280000028FAD1F5E742F20500FFF7FDFD23685B
:10929000C0F80330A388A0F8073007484FF010FF4C
:1092A000FFF7E4FD4379002BE3D0FFF7E6FDE7E7A6
:1092B000081200202991050861DB0A08F7B5074666
:1092C00008460C46B8F051FA06464FF0D1FE4279F6
:1092D000234622F0030242F00302427141F20902E6
:1092E000043600F11505A0F81570C6750190C2800E
:1092F00033B901A82146B8F043FA284603B0F0BDBF
:109300005A7922F0030242F002025A711B68EFE719
:1093100010B5044642F23700FFF7D0FF0323037174
:109320000023C4704371837105484FF0C9FEFFF7F5
:109330009DFD407910B1BDE810409EE510BD00BF15
:10934000F7DB0A0810B5044642F23800FFF7B6FF13
:10935000032303710023C4704371837105484FF0E8
:10936000AFFEFFF783FD407910B1BDE8104084E502
:1093700010BD00BF43DC0A08436A70B55A070446B3
:1093800005D5002300781A461946FFF72FFF636AB8
:109390009B0706D52046FFF74DFE636A23F00203C4
:1093A0006362636A1E074ED5E679052116F008064A
:1093B00025782FD04FF61940FFF766FD00230122D4
:1093C00043718371C3710271C57046484FF078FED6
:1093D000FFF74CFD4379C3B9072142F23500FFF78F
:1093E00053FDC570D4F801304360B4F805300381F3
:1093F0003D484FF065FEFFF739FD4379FBB1FFF7BC
:1094000035FD407940F4805003E0FFF736FD002839
:10941000E2D070BD4FF61A40FFF736FD0123C5704C
:10942000037146718671C67130484FF049FEFFF7EF
:109430001DFD4379002BCFD0FFF71FFDE7E7636ADF
:1094400023F008036362636ADD0601D40020E0E7CD
:1094500013F480551DD0616A4807F7D5E37BA28DD0
:10946000012B04D1002A3BD0802A28BF802211F092
:10947000400F94F830304FF0010118BF01232078DD
:10948000FFF7B4FE0028C4D1636A23F004036362CB
:10949000DCE71906E27B13D4E37B626A023B012B13
:1094A000D9D8D305D7D561692078FFF74BFF0023C2
:1094B0006361636A23F4807363620028CBD0A8E7FA
:1094C00002F0FB03012BC6D021692078FFF720FFB3
:1094D000636A256123F0800363620028DCD098E78B
:1094E0004022C4E701DB0A0803DD0A0831DB0A0871
:1094F000F7B5857804461F2D47D8077801A9384667
:10950000FEF79AFE28B9019B5B6ADA0601D5DB04F7
:109510003DD400216678009175B9384601A9FEF75F
:109520008BFE044690B16846B8F0B3F8194853F082
:1095300033F9848003B0F0BD2B460846E21CB8F036
:10954000BCFA00900028E8D11A24EFE7DDE90045D5
:1095500096B905F11000B8F09CF82C616C6A44F0E3
:10956000800400236C6214F010040093DBD02846C2
:10957000FFF702FF0446D6E705F11400B8F089F8BA
:109580006C616C6A44F48074EBE72124CEE702241A
:10959000CCE700BF2002560010B5104C94F8833081
:1095A00033B1E06D10F0010002D1FEF759FE00B9B1
:1095B00010BD436ADB06F8D54EF6602294F884307D
:1095C0004FF4827153430648002271F033FA0028A9
:1095D000EED1E36D43F00103E365E9E708120020F3
:1095E000CC1200202DE9F341D0F8016001A90078E8
:1095F000FEF722FE0546002831D1019C676A7A04F5
:1096000015D4730704F1010830D54146062071F0E6
:1096100035FD002842D1A37903F03F03A371142341
:10962000E371636A43F4004343F008036362A36A8F
:10963000F0064CBF43F4005323F40053A362636A63
:10964000B1064CBF43F4003323F4003372064CBF21
:1096500043F4802323F4802343F002036362114820
:1096600053F09AF8858002B0BDE8F0814046FFF7DC
:10967000BBFA78B90C4B47F00807D3F86720C4F859
:109680000120B3F86B2093F86D30A8F8042088F817
:1096900006306762636A23F40043C7E740F2074578
:1096A000DDE700BF2002041208120020F8B5456A69
:1096B0000446690419D4184F05F4004397F8832031
:1096C000012A13D1826A920410D473B1411C06207E
:1096D00071F0D4FC48B9A37903F03F03A3711423BC
:1096E000E371636A43F008036362F8BD002BFCD1A9
:1096F000661C3046FFF778FA0028F6D1D7F86720C5
:10970000064BC4F801209A889B7945F00805A4F817
:109710000520E3716562E8E7081200206F1200205F
:1097200022F00042052A38B50DD0B2F5827F15D05F
:10973000032A06D11D4AD36D23F00203D365FFF738
:1097400075FD002038BD194A1B88B2F88010994277
:10975000F7D10023A2F880300120F3E7134DEB6D21
:1097600023F00103EB6595F88330012BF4D1002041
:10977000FEF776FD044640B9FFF70EFFEB6D43F0B0
:109780000403EB65FFF752FDE6E7636ADA060BD5E3
:109790005B0409D42046FFF789FF636A204643F043
:1097A00006036362FFF7E8FD2046E1E708120020A8
:1097B00022F00042B2F1A04F08B504D10348A5F051
:1097C00045FE012008BD0020FCE700BFB0720C0878
:1097D00022F00042B2F5887F19462DE9F04700F0EB
:1097E000ED800ED840F203139A423FD040F20913A5
:1097F0009A4200F0CD800E2A00F0BE800020BDE825
:10980000F08740F207239A4249D0B2F5037F5ED039
:1098100040F206239A42F1D10C686D4894F8523018
:1098200094F8735003F007030344543093F84CA0AA
:1098300094F8709094F9758094F876708E88A5F0FD
:1098400005FE0028DAD0E36C4360B4F8503080F8AD
:109850000AA003816B1E5D425D41C57280F80C90C9
:1098600080F80D808773A0F80F60C7E70C7820465A
:10987000FEF77EFC0028C1D05648B1F802808F88E0
:10988000CE880D7AA5F0E2FD0028B7D00471A0F8CB
:109890000580A0F80770A0F80960C572AEE70C78E3
:1098A0002046FEF765FC0028A8D04B784A48013BCB
:1098B000DBB20A2B97BF464A00259B1893F85C50F1
:1098C000A5F0C4FD002899D00471457196E78C7805
:1098D000012C1FD0022C2FD0D4B9CB780E78023BAC
:1098E000DBB2022B8CBF0124394A91F904809CBF62
:1098F0009B1893F86C404F7991F906503748A5F0C2
:10990000A5FD28B10671447180F80680C771057203
:10991000012074E7CB780E78023BDBB2022B98BFB4
:109920002B4A91F904809CBF9B1893F86C404F79A7
:1099300091F906502A48E2E7CB782A48023BDBB28D
:10994000022B97BF224A01249B1893F86C404E7853
:109950000D7891F9049091F8058091F90670A5F0C1
:1099600075FD0028D4D086808571C47180F8089078
:1099700080F809808772CBE70B460822002113F894
:10998000014B1948A5F073FD0028C1D00471BFE751
:10999000164891F800804F888E88CD880C89A5F0F4
:1099A00055FD0028B4D080F80480A0F80570A0F818
:1099B0000760A0F80950A0F80B40A9E70C481C78F4
:1099C000A5F044FD00283FF419AF047116E700BF6D
:1099D00068720C08C0720C08D0720C08D8720C089F
:1099E000DC720C08E0720C08E4720C08E8720C08D7
:1099F000EC720C08184640F20A4322F000429A42E8
:109A00002DE9F04110D8B2F5806F40F2B3806FF4C9
:109A10008063D318092B00F2AD80DFE803F05716FE
:109A2000263723232323AB5740F201539A423BD0DE
:109A3000A2F20253032B00F29D80A2F20352022AEB
:109A400056D8DFE802F05D809300057844688269AB
:109A500000F1080300214848A5F009FD10B1057187
:109A6000C0F805400120BDE8F081067845880479FA
:109A7000826900F1080300214048A5F0F8FC0028A5
:109A8000F0D00671A0F80550C471EBE70578448862
:109A90004269031D00213A48A5F0E9FC0028E1D005
:109AA0000571A0F80540DDE7077846880579C48888
:109AB00000F1080200213348A5F0FEFC0028D1D0B7
:109AC0000771A0F80560C5710481CBE740F201433E
:109AD0009A4205D1057844882B48A5F0B7FCDDE70C
:109AE00004782A48A5F0B2FC0028BBD00471B9E77D
:109AF000077846880579C4882548A5F0A7FCDDE7E6
:109B0000876806784588047977B1C78800F108022C
:109B100000212048A5F0D0FC0028A3D00671A0F8B1
:109B20000550C47107819DE73B463A4639461948BE
:109B3000A5F09DFC002895D00671A0F80550C471D1
:109B4000077247728EE790F8008047880679C588CB
:109B500004891148A5F07AFC002883D080F804809D
:109B6000A0F80570C671058144817BE705784468DB
:109B70000A48B2E7002076E7F0720C08F4720C088D
:109B8000F8720C08FC720C0800730C0804730C08C3
:109B900008730C080C730C0810730C0814730C0871
:109BA0002DE9F8430023254C8C21C4F8D430A4F8C7
:109BB000D83002680120C4F8D42094F8D4902360EF
:109BC0004A4670F0F1FF054620BBA046064648F81D
:109BD000D00F4E4521D31A491A48B7F053FCB4F8B8
:109BE000D640A4F11B03E02B14D8042142F2240038
:109BF000FFF74AF96FF06F0343714223A0F8034067
:109C0000837111484FF05CFAFFF730F943790BB1DB
:109C1000FFF733F92846BDE8F883012071F02AF8F0
:109C200007468C2200210136A1F033FF87F87060CF
:109C3000C8F8007007F10408CBE700BF0812002045
:109C4000D0260220CC120020B3DE0A0810B5114B3A
:109C5000D3F8DC301C7FD4B1102C28BF1024B7F00F
:109C600064FC621C81B200230720D2B270F09CFF1A
:109C7000044650B908490948B7F004FC08480949A6
:109C8000B7F000FC084871F09DF9204610BD04248F
:109C9000E5E700BF08120020E0260220E8120020BD
:109CA000EC120020F02602200027022030B5124BD3
:109CB0000D469942144689B01BD1930011D505A9D0
:109CC00006A870F057FF072300220393059BE1B21B
:109CD0000293069B2846CDE9003241F00051B7F0CF
:109CE000A6FB0648A5F0B2FB00B10471012009B043
:109CF00030BD0020FBE700BFEC12002018730C08F9
:109D0000F0B5054685B02848A5F0F2FA002844D001
:109D10002C68002C43DB00236F686E7A2D7A1A467C
:109D2000224845F00051B7F070FB00231F481A4647
:109D300045F08041B7F069FB4CB3072070F0B0FFED
:109D400001282ED9631EB3F5A37F98BF4FF4A474E6
:109D5000B8F0EAFFA4FB0003C40B44EA4344B8F0A4
:109D6000E3FF0722A7FB0030DB0B43EA4043002E52
:109D70000CBF4FF000514FF08041CDE9023200227C
:109D80000A48CDE900422943B7F051FB0446084890
:109D900052F002FD848005B0F0BD0224F7E72124D3
:109DA000F5E71A24F3E700BF08270220EC12002091
:109DB0002002011A13B50C4601A9B8F0BBFF10B977
:109DC000019BC4E9003002B010BDF7B5186810F06F
:109DD000020004D01A4DD5F8E81011B9012003B0E3
:109DE000F0BD00240422234668460094B7F047FCE7
:109DF000BDF80230DB070AD405F1E800B7F067FCD4
:109E0000042101900DEB0100B7F0D3FC019C00266A
:109E10000C4F57F8043B23B12146BDF8000098478A
:109E200048B1D5F8E830002BD8D0022195F90401CB
:109E300070F05CFCD2E70136062EEAD1F1E700BFF4
:109E400008120020F41200207FB51C4640F20A637D
:109E500022F000429A4206D8B2F5C06F06D8032A13
:109E600020D00D2A4CD0002004B070BD6FF4C06328
:109E70001A44092AF7D801A353F822F06B9F00086F
:109E8000199F00083D9F00084D9F0008639F000830
:109E9000679E0008839F0008999F0008BD9F0008E7
:109EA0000DA00008002402A808F080FB01A8BDF85E
:109EB0000850019474F01EFD00B101945548019CB6
:109EC000A5F0C4FA0028CED0002343718371C3717A
:109ED00043726FF0010383724FF0FF33C3723E236E
:109EE00083746FF011030922C3746FF0630302716E
:109EF000037501224D230272C46005824375B2E7E7
:109F000023460422002153F8044B4348A5F0AFFA3E
:109F10000028A8D08480A6E725782846FEF728F9EF
:109F20000028A0D03D4894F90160A478A5F08EFAED
:109F3000002898D005714671847194E724783848D8
:109F4000A5F084FA00288ED004718CE72578354876
:109F50006468A5F07BFA002885D00571C0F805403B
:109F600081E7257830486468F3E7304825786468ED
:109F7000A5F06CFA00283FF476AF0571A0F8054013
:109F800071E72B4825786468A5F060FA00283FF453
:109F90006AAF0571447166E7627826480D2A97BF5B
:109FA000254B01259B1893F8D4502478A5F04EFA40
:109FB00000283FF458AF0471457154E762780021DE
:109FC0000D2A98BF1C4B1D489CBF9B1893F8D4507A
:109FD000A278636888BF01252678A5F048FA08B101
:109FE000067145716378012B3FF63DAF8DF808305F
:109FF00001220021114802AB2478A5F038FA00288C
:10A000003FF431AF0123047143712CE724780C48ED
:10A0100096E700BF1C730C0820730C0824730C080F
:10A0200028730C082C730C0830730C0834730C085C
:10A0300038730C084C730C0868720C0850730C08C9
:10A0400054730C08F7B51F68F90726D54FF6FF7350
:10A050000025284C284EA4F85630284B06F14C0118
:10A0600004F1C400C4F80831C4E91055C4E912551C
:10A0700084F834502565B7F005FA2149084674F094
:10A0800052FAF7232846A6F85C30FEF77FF806F16F
:10A09000600104F1C400B7F0F5F9BA0727D5154CF3
:10A0A000236CF3B9A36CE3B9164D0193BCF014FC17
:10A0B00004462846B7F00BFB01902046BCF007FC95
:10A0C0000199A1B14B799B070FD4022101A8B7F0E8
:10A0D00070FB01990C48B7F053FB0220FEF756F8CD
:10A0E000E4E70220FEF752F8DAE70848F3E7002039
:10A0F00003B0F0BD08120020D026022035BD0008B4
:10A1000058730C081413002048120020501200202D
:10A110002DE9F04F87B00593BDF840300446039316
:10A12000BDF844301546029104932BB1129B1BB924
:10A13000212007B0BDE8F08F15F0300916BF4FF0B1
:10A1400003084FF0020801235FFA88FB18BFC5F32C
:10A1500040195A464FF0000158461ABF4FEA4909C4
:10A160000193CDF80490FEF71DFC08B91A20E0E732
:10A170002046FDF78BFF04460028D9D04088FEF723
:10A1800018F90028D4D0667A7307039B48BF06F0FD
:10A19000FB0603F1060080B248BF46F02006FEF73A
:10A1A000BBFB82460028E1D02046FEF749FE414B2A
:10A1B00000F11004D9899A68074602EB0112944213
:10A1C00052D15846FDF71FFF044642F60300FDF743
:10A1D0000DFF637AEDB233436372374B6080636087
:10A1E00005230220237202992573FEF767FC4FF6C0
:10A1F000FF73984203D1029B1888FDF79BFE637E94
:10A20000E0811E43059B6082A3824FF6FF73E382C9
:10A2100001232376039B6676C4F81CA0AAF80230BB
:10A22000049B8AF8005023B1129B13B11B788AF863
:10A230000630139B228A1A80019B9BB142F60210C2
:10A24000FDF7D4FE1D4B1B4A6362032384F82830BC
:10A2500092F820306084591C84F82C9082F82010E9
:10A2600084F82D30002064E7121BC2F30F12214640
:10A2700012014FEA081B04EB0810A1F0F0FB5A464C
:10A2800000212046A1F005FC0B200A4B1A8ED9892B
:10A2900008EB02039BB23A82013292B29A4278767C
:10A2A00007F11007F7D1034B88441A86A3F80E80F4
:10A2B0008BE700BF081200200108FFFF0308FFFF23
:10A2C000F8B5142704460E460B683A461D0A0021CD
:10A2D0000435A1F0DEFBEDB2212220463946B7F06D
:10A2E00026F920462946B7F0ABF9A2793368144421
:10A2F000E360F8BD01232DE9F0418B4090F8711027
:10A30000044621EA030149B280F87110002953D1B3
:10A3100010211830B7F0F4FB334D286800284DD1D8
:10A32000324D04F13800B7F0B4F92B681BB19C42F0
:10A330005A684DD12A60A36859051AD51A0518D450
:10A3400043F4006304F1780630462949A36094F889
:10A350007080E768FFF7B4FF304694F87C10A5F0F2
:10A3600017F830B994F87E308433234483F806809C
:10A370009F80002320466360B7F0ACF8012070F0A6
:10A38000A7FC4FF48072C0B2B2FBF0F2424394F8E3
:10A3900070300344B3FBF2F102FB1133DBB2591E00
:10A3A000C9B2FD29F5D884F870300023114A6360E2
:10A3B000D5F8D030ABB91460BDE8F08183689C4219
:10A3C00004D1066870F0C4FC2E60A6E70546A4E739
:10A3D0001A465B68002BAED09C42F9D1636853608B
:10A3E000A9E71A1D5B68E5E74C120020081200205F
:10A3F00068730C08D812002010B50446806920B19B
:10A400000021FFF777FF0023A36110BD2DE9F04184
:10A41000244E017886F88210002941D001EBC10159
:10A42000002301220420C90070F0BEFB054658B984
:10A43000042070F01FFC4FF048082F46B06596F8D6
:10A4400082309D4203DB00252846BDE8F081B46DD3
:10A45000002108FB05441422A76104F13400A1F097
:10A4600018FBA0224FF4A073C4E90723072304F1CB
:10A47000100084F83130E773E771B7F00AF904F19E
:10A480001400B7F006F92046FFF7B6FF40F20113BB
:10A49000E3857F23A76284F8323067620135CEE717
:10A4A000B165D0E708120020F7B5077801A9384652
:10A4B000FDF7C2FE0546002839D1019C636A13F0FE
:10A4C000100508D023F0100343F004032046636214
:10A4D000FEF752FF0546FF232370636AA02223F094
:10A4E000010363624FF4A0730026C4E90723072326
:10A4F00004F1100084F83130E673E671B7F0C9F862
:10A5000004F11400B7F0C5F82046FFF775FF40F2DC
:10A510000113E3857F2331463846A66284F8323042
:10A520006662FEF7F5FE31463846FEF70BFF03483C
:10A5300052F032F9858003B0F0BD00BF2002040262
:10A5400090F8393073B55B0704460D4633D4FFF7F6
:10A55000ADF86B1E042B1DD8032D1BD0E379142BF3
:10A560002BD0A369B3B91648694690F8836000F10F
:10A5700067026030012E18BF10460093ADF804301A
:10A580008DF80630FEF750FB18B91A25284602B0A0
:10A5900070BDA061636AE57343F016036362FEF762
:10A5A000FBFF2046FEF7E8FE05460028EED02046D9
:10A5B000FFF722FFEAE70225E8E72125E6E700BFEB
:10A5C0000812002037B5457801A90078FDF734FE60
:10A5D000044618B9052D019C06D921240F4852F0D4
:10A5E000DBF8848003B030BD2069B7F0BEF81F28C7
:10A5F000F3D86069B7F0B9F81F28EED8012DECD078
:10A600002B1F012BE9D9636A204623F4825363622E
:10A610002946FFF795FF0446E0E700BF20025602F7
:10A6200013B501A9FDF708FE78B9019C636A2046BD
:10A6300023F0500343F004036362FFF7DDFE20467E
:10A6400002B0BDE81040FEF797BE02B010BD00207A
:10A6500010B5FDF705FE044600B910BD2078FFF7E0
:10A66000DFFF2046F5E710B50078FFF7D9FF044675
:10A67000024852F091F8848010BD00BF2002040A05
:10A68000002337B580F8723040F6FF73A0F86E30C3
:10A6900083680446DA040D46C16010D443F4806335
:10A6A0006A46A36040F203212046CDE90045B6F09A
:10A6B00025FF00212046FFF71DFE03B030BD69468F
:10A6C00090F87600FDF7B8FD18B90098C17BFFF748
:10A6D00037FFA36823F48053E2E738B500230F4C1B
:10A6E0002568E36765B9206888B9C4F8D0000120FF
:10A6F00070F09EFABDE8384009490A48B6F0E6BE57
:10A70000284641F21601FFF7BBFF6D68EAE7436890
:10A7100090F871102360FFF7EDFDE4E708120020C8
:10A72000D0260220CC12002038B54B7905465B07B5
:10A730000C460BD420460649FFF7C2FD204621797E
:10A74000A4F026FE10B9A3791C44257438BD00BFBF
:10A750006C730C08F8B50546BCF0BEF81D4F0646F4
:10A7600097F8153107F5887413F0040F0ED12046C1
:10A770001949FFF7A5FD204697F81411A4F008FE2B
:10A7800020B13046BDE8F840BCF0A1B897F81631CA
:10A790000C3323442DB91A79FF2AF2D001321A71F1
:10A7A000EFE7012D05D15A79FF2AEAD001325A711B
:10A7B000E7E7022D05D19A79FF2AE2D001329A719A
:10A7C000DFE7032DDDD1DA79FF2A1CBF0132DA7110
:10A7D000D7E700BF0812002070730C0840F6FF7323
:10A7E0002DE9F341B0F86E2001919A4205D101A8FC
:10A7F000B6F04FFF02B0BDE8F0810B4601248BBBE1
:10A800001D48B6F0BDFF1C4D2846B6F060FF04465B
:10A810000028EFD0B6F0A9FF6379064603F00108DF
:10A820006FF30003637104212046A768B7F071F845
:10A830004279847968F300024271D243B7F86E100E
:10A840000C34876002F001020155C1F3032100EBD3
:10A85000040C41EA02118CF80110ACF802604EF0D1
:10A8600043FCD1E75A79986022F0030222435A71DF
:10A8700000241B68C3E700BF4C12002073B50446D8
:10A8800010460E460192B6F070FF042185B2019881
:10A89000B7F03FF8014628B901A8B6F0FAFE1A2031
:10A8A00002B070BD837901900C33C2185680C55236
:10A8B0002046FFF793FF0020F2E70A4600680421D4
:10A8C000DCE709B11439F8E71A207047F8B50446F7
:10A8D0000F46164605210120069A1D46FDF737FF53
:10A8E000014630B14770468005712046BDE8F8400A
:10A8F000E7E7F8BD012110B5002204461920FDF755
:10A9000026FF014618B12046BDE81040D9E710BD2A
:10A91000F0B50E46044685B0FDF7E0FEF278B37858
:10A92000482043EA0223A4F86E30727E337E43EA65
:10A930000223A4F86230727F337F43EA0223A4F833
:10A940006430F27EB37E43EA0223A4F866301B2310
:10A95000A4F86C305A4BB3F87620B3F87830A4F8EA
:10A960006820A4F86A30022384F87230A36843F4A4
:10A970000073A36094F87330022B02BF94F8713017
:10A9800043F0010384F87130B7F0F1F80546014651
:10A9900048224C4873F0CCFDE5B194F871300027A3
:10A9A00043F0080384F87130A36C2A466B604FF4BF
:10A9B000B813A5644449AB6020462C602F776F64C0
:10A9C00070F05AF83A46414905F10C0070F054F81D
:10A9D00002232B744FF6FF73308C98425DD10294A2
:10A9E0004FF6FF7340F2062102AA3948ADF80C3049
:10A9F000B6F084FD002240F202212046B6F036FD7A
:10AA00002046FDF72EFF022142F23000FEF73CFA0D
:10AA1000B4F86E30A0F803302E484EF051FBFEF72C
:10AA200025FA4379ABB9FEF721FAC088FDF792FB0E
:10AA3000054670B1FEF71AFA95F87020037A8DF882
:10AA4000042040F20721224801AA8DF80530B6F013
:10AA500055FDFEF70BFA43790BB1FEF707FAA36831
:10AA6000042123F48043A36042F27A00B4F86E50CC
:10AA7000FEF70AFA012343710023A0F80350837103
:10AA800015484EF01DFBFEF7F1F9437993B9A36821
:10AA900043F40053A36005B0F0BDFDF7FFFB029443
:10AAA00000289DD00C22B0FBF2F2837A43EA022305
:10AAB0009BB297E7FEF7E1F90028ECD1E7E700BF8A
:10AAC0000812002058730C0819B60008F599000800
:10AAD000CC120020D99305080FE20A08F7B5044606
:10AAE0000F46164668465A79991D1D46FDF7DCFD4E
:10AAF0002CB969463046FEF797F80446A0B140F2FB
:10AB0000032329462046A4F8723084F8767033680F
:10AB1000C4F85A30B388A4F85E30B37984F8603052
:10AB200003B0BDE8F040F3E6032140F20640FEF733
:10AB3000ABF96B88A0F803300D234371024803B0D2
:10AB4000BDE8F0404EF0BCBA97DD0A088378F7B54F
:10AB5000122B0E4635D10B689A790C321344DD78EE
:10AB60001F790DB145F48055384601A9FDF764FB06
:10AB700088B9019C636A23F0100363628DB939467A
:10AB8000A069621C104BFFF7A9FF222229460E483C
:10AB9000A561A0F07EFF304603B0BDE8F040B6F0FE
:10ABA00078BD2046FFF728FC636A5A0603D523F0D8
:10ABB00040036362EFE7384604F13401FFF7B4FD68
:10ABC000E9E703B0F0BD00BF8E120020F0B50378B6
:10ABD0000446302B0D4685B039D005D8052B25D03D
:10ABE000082B41D005B0F0BD3E2BFBD183780C2B58
:10ABF0004CD8022BF6D9033B092BF3D801A252F80B
:10AC000023F000BF9DAC000823AE0008E5AB0008B0
:10AC1000E5AB0008ADAD0008E5AB0008E5AB00080A
:10AC2000E5AB0008E5AB000801AE0008B0F8030092
:10AC3000FDF790FA28B1617909B141F48051FFF72D
:10AC40001FFD284605B0BDE8F040B6F022BDB0F8C3
:10AC50000300FDF77FFA0028F3D0A17809B141F491
:10AC60008051FDF73BFEECE7B0F80300FDF772FA08
:10AC70000028E6D0627990F8743022B143F00103E5
:10AC800080F87430E9E703F0FE03F9E7212B00F0C8
:10AC9000DD80292B1FD0202BD3D0A3E78088FDF7A0
:10ACA00059FA0028CDD0E278002ACAD1E179A279F8
:10ACB00042EA0122A0F86220E17AA27A42EA012265
:10ACC000A0F86420227A617A42EA0122A0F8662084
:10ACD000FDF7C7FDB5E7C678811C3C2E21D10020C9
:10ACE000FDF7BEFA0028ACD0C37B012BF8D1436A34
:10ACF000DB06F5D50678FF2EA3D0304601A9FDF777
:10AD00009BFA00289DD1019C636A204623F0100322
:10AD10006362FFF771FB304604F13401FFF704FD75
:10AD20008FE7877907BB594AD46FD767C6B12046EA
:10AD300046F48056FDF7D2FCE66084F8727040F26B
:10AD40000121204601AACDE90146B6F0D7FBA36850
:10AD5000394643F480632046A360FFF7CBFA70E7DF
:10AD60002046FFF7D5FD6CE74FF6FF73408C984205
:10AD700011D0FDF793FA70B1444A0B4692F8834024
:10AD800002F167006032012C18BF0246FF2100204B
:10AD9000FFF7A4FE55E73E4B223451F8042BA142A5
:10ADA00043F8042BF9D10A881A804AE7B0F8030067
:10ADB000FDF7D0F900283FF444AF40F20911B4F890
:10ADC000053090F87020A0F86C308DF80420ADF8B4
:10ADD0000630227AE37943EA0223ADF80830A27AFA
:10ADE000637A43EA0223ADF80A30227BE37A43EA2E
:10ADF0000223ADF80C3001AA2648B6F07FFB20E70D
:10AE00008088FDF7A7F900283FF41BAF90F8702069
:10AE1000A3798DF8042040F207218DF8053001AAAE
:10AE2000EAE78088FDF796F900283FF40AAF90F82A
:10AE300070300E218DF80430D4F8063001AACDF818
:10AE40000530D4F80A30CDF80930D5E78088FDF711
:10AE500081F900283FF4F5AE90F870304FF403719B
:10AE60008DF80430E37801AA8DF80530A3798DF8C8
:10AE70000630E3798DF80730237A8DF80830637A4D
:10AE80008DF80930A37A8DF80A30B5E70812002052
:10AE90008E120020CC1200207FB5024618B1022885
:10AEA00008D004B070BD0321384804B0BDE870403C
:10AEB000B6F0DCBA364C04F14800B6F008FC0028C5
:10AEC00052D0827901900C32835C85180F2B0CD8FC
:10AED000042B0ED9053B0A2B0BD8DFE803F0300A10
:10AEE0000A300A0A0A0A0A132D00302B27D03E2BFB
:10AEF0002AD04EF0C3F8019B8342D2D001A8B6F00D
:10AF0000C8FBCEE7AB78A363B5F803309AB2102A3A
:10AF1000EFD040F603418A42EBD06A79ADF80C30AD
:10AF2000B4F856308DF80A20052102AA1748ADF86A
:10AF30000830B6F0E3FADCE7EB78A363D9E72846FC
:10AF400001A9FFF743FED4E70024124E019B3BB159
:10AF5000284656F8043B01A901349847102CF5D136
:10AF600001A8B6F096FBC4E7236C002B99D004F13E
:10AF70004000B6F0ACFB0290002892D0D4F8083123
:10AF80000BB198478DE702A8B9E700BFCC120020AB
:10AF90000812002074730C082DE9F04F914287B01D
:10AFA0000F4615461E46BDF840B0BDF84490BDF8AA
:10AFB000488000F2848040F67A428B1F9BB2934215
:10AFC0007DD8B5F5486F7AD8B6F5FA7F77D240F6D6
:10AFD0007642ABF10A039BB2934270D8731C9BB2CA
:10AFE0006B43B3EB8B0F6ADAC14568D8FF2810D1E9
:10AFF000364BA3F86E10A3F87050A3F87260A3F854
:10B0000074B0A3F87690A3F87880002007B0BDE86C
:10B01000F08FFDF7ADF80446002850D090F873305B
:10B020002A46012BCDE901983346CDF800B008D16E
:10B03000FDF73EFF0028E9D1A4F86890A4F86A80E3
:10B04000E3E7FDF735FFA36813F4004339D11F4A46
:10B05000042192F824A118460AF1010A5FFA8AFA3B
:10B06000BAF1010F38BF4FF0010A82F824A1102273
:10B070000593B6F0B8FC014628B34FF0050C807973
:10B08000059B0C300A1882F802C04FF00C0CD370EC
:10B0900001F800C012201071082053709071D37114
:10B0A000204682F805A0178155819681A2F80EB03E
:10B0B000FFF794FBA36843F40043A360BCE721209F
:10B0C000A4E70220A2E71A20A0E700BF0812002090
:10B0D0001FB54389029303890193C3880093838832
:10B0E00042880188FF20FFF757FF0446024851F0CD
:10B0F00053FB848004B010BD200206001FB501463A
:10B100000078FF2817D0B1F80B300293B1F809305E
:10B110000193B1F807300093B1F80530B1F803207E
:10B12000B1F80110FFF738FF0446044851F034FB32
:10B13000848004B010BD2124F7E700BF200206067A
:10B1400070B50A2205460E4600200421B6F04BFCDD
:10B150000146B0B1847900220C340319052098709F
:10B160000620DA7008550120187102205E7198716E
:10B170005A702846BDE87040DA711A725A72FFF7A9
:10B180002DBB70BDF8B505460F46164604210A22B0
:10B190000020B6F028FC0146A8B1847900220C34C6
:10B1A0000319052098700620DA70085513201871CD
:10B1B00002205F7198715A702846DA711E81BDE8CD
:10B1C000F840FFF70BBBF8BD00232DE9F04FDFF887
:10B1D000988191B0CDE90633CDE90833D8F8043031
:10B1E000054613F008090CD008F5967308F59E780B
:10B1F00053F8042B434545F8042BF9D111B0BDE8B1
:10B20000F08F032008F02CFFB6F0B1FC07460028B1
:10B21000F4D0062008F024FFB6F0A9FC064618B9C1
:10B220003846B6F0A6FCE9E7CDE9049912F0C2FD74
:10B2300020B13846B6F09DFC3046F2E74FF4A053FB
:10B24000DFF828A11022C6E9023A454B30463360A8
:10B2500006A904AB77F0F9FB0446A8B95246384674
:10B26000049977F089FE044670B9CA46D8F82C30A4
:10B270001FFA89F2D988914227D8102229463846E8
:10B2800005AB77F0A5FE0446384677F0CDFD38468D
:10B29000B6F06FFC304678F069FC3046B6F069FCD9
:10B2A000049811F083FC002CA8D12E4B05F110025C
:10B2B00055F8041B954243F8041BF9D1D8F8043023
:10B2C00043F00803C8F8043098E71A681FFA89FBAE
:10B2D0004FEA0B1102EB0B1BBBF80200ADF80EA0FE
:10B2E00001910092FCF7DCFF04465846FCF7A8FEEB
:10B2F00030B3DDE90021A4F520539BB2032B02D922
:10B30000B4F5245F1FD1535A00205946ADF82830B8
:10B310000DF10E020DF10D03ADF82A40FDF75CF9B9
:10B32000BDF80E2001460BA8A0F06CF9BDF80E2068
:10B33000384604320AA977F022FE04460028A3D139
:10B3400009F1010992E704F55643FF339BB2042B40
:10B35000F6D8535AADF82A40ADF82830E6E700BFDA
:10B360000024800034130020081200200002C003D3
:10B370001FB504466846FFF727FF1022694604F10F
:10B380002100A0F05CFBB0FA80F0400904B010BDD1
:10B390002DE9F3470F4690469946054618B1037CC0
:10B3A000012B00F09E806B69781E43F004036B61F3
:10B3B00080B2FCF76BFE064658B1B6F90230408801
:10B3C000002B42DBFCF7FEFD42F6030398423CD122
:10B3D000367B002239462846FCF790FF82463846E5
:10B3E000FCF754FE4088FCF75BFF42F605239842C9
:10B3F0002DD116F0300F36D1B3066AD51AF0020FF0
:10B4000069D0EA8B002A68D16B890321033B9BB288
:10B410004B45009228BF4B4642461D20FDF7BBF925
:10B42000014600285BD0A0F801702846FFF749FAD2
:10B430000446002843D1024647F2305340F20A4105
:10B440002868EF836FF0F6FA39E00026C1E795F837
:10B450002030D807CDD52846FFF78AFF0028C8D16D
:10B4600041F212142BE01AF0030FC5D03846FCF756
:10B470000DFE014658B3FCF7E3FD40B38A8812F491
:10B48000E04F02F4005109D171B95204B4D52B68D0
:10B4900093F975300133AFD108240EE02868FCF72A
:10B4A00093FF044639B140B92B6893F8743099077B
:10B4B000EBD4052401E00028E7D004F588546B693B
:10B4C00023F004036B61204602B0BDE8F08701243D
:10B4D000F3E72124F3E70224F1E70524EFE71A2438
:10B4E000EDE70724EFE770B504460078FCF740FE6F
:10B4F000C0B1856CB5B1B4F801603046FCF7ECFD25
:10B5000090B16A89E378033A92B293420FD8221D30
:10B5100031462846FFF73CFF0446064851F03CF907
:10B52000848070BD2524F8E741F20114F5E7492431
:10B53000F3E700BF20020A1073B5124B0E46054612
:10B540000446019398B1FFF713FF70B9002231460A
:10B550002046FCF7D3FE022806D1042331462046BC
:10B560000DEB0302FFF714FF0DB102B070BD2046D2
:10B57000FCF7AFFC04460028F7D0FFF7F9FE0028DF
:10B58000F5D1E3E70100FFFF213001B91CE61022ED
:10B590000021A0F07EBA002310B590F8202041FAD7
:10B5A00003F4E40703D442FA03F4E4070DD40133AF
:10B5B000082BF4D101F001010A4380F8202011B1D9
:10B5C0000021FFF7E1FF002010BD1320FCE770B45D
:10B5D000E8B100291BDB0F4DED6A2D7E8D4216DD93
:10B5E0003F2914DC032601F0030500EBA10191F8CB
:10B5F00031406D00AE4002F0030224EA0604AA4086
:10B60000224381F8312013B170BC0021BCE770BC2B
:10B61000704700BF081200202DE9F04122F00043DE
:10B620000D46114640F203229342044688B000F0D2
:10B630009680B3F5017F0CD240F20122934200F0D4
:10B640008E8040F2022293421ED0002008B0BDE856
:10B65000F0816FF481621344012BF6D8037C012B37
:10B66000F3D00123037440F20943994200F0AD8006
:10B6700040F20A439942E8D150F80C3B04AA93F8EF
:10B6800070308DF81030A9E000F121052846FFF751
:10B690009BFD42F60520FDF763FA064604A8FFF776
:10B6A00093FD102229460DEB0200A0F0C8F908B363
:10B6B00020460121FFF768FF42F60520FDF750FA0A
:10B6C000A0B10021FCF7F1FD014605462046FCF73C
:10B6D00011FC07461022002104F13100A0F0D9F935
:10B6E00000233A4629462046FFF771FF636923F09D
:10B6F0000103636142F60303022003A9ADF80C3095
:10B70000FDF7DCF9012507464FF0000828463A46C8
:10B710004FF6FF71FCF7F1FC0546002895D0FCF7C9
:10B72000DBFC0135ADB20028F0D0AE4203D131468A
:10B730002046FFF701FF294620460DF10E02ADF825
:10B740000E80FCF7DBFD03460028DFD0BDF80E209D
:10B750002946009220460122FDF76BF8D6E763697F
:10B760009B0704D540F209412068B5F056FE002D34
:10B770003FF46BAFAC6C002C3FF467AF194E206800
:10B78000836C9C4219D16368836422463146B5F0CC
:10B790007DFE04F10C00B5F09DFE04F14400B5F00F
:10B7A00078FF2046B6F0E5F9AC6C002CE7D1032118
:10B7B0002846FEF79FFD48E71346002BE5D05A6860
:10B7C0009442F9D162685A60DFE74FF4816150F822
:10B7D0000C3B04AA93F870308DF81030B5F08EFE53
:10B7E00033E700BF19B600082DE9F043044689B0DD
:10B7F00008460F4616460393FCF748FC054618B169
:10B800005CB1FCF71DFC40B903A8B5F042FF4FF056
:10B810000108404609B0BDE8F0832B7A072B05D814
:10B82000DFE803F01D2F3A44231D1D2976BB039842
:10B83000002841D1324695F80880B8F1020F78D03F
:10B84000B8F1030F79D0B8F1010F45D0002C40F0CA
:10B8500093804FF0000803A8B5F01BFFD9E703A8B9
:10B86000B5F017FF4FF00308D3E703A8B5F011FFB9
:10B870004FF00608CDE703A8B5F00BFF4FF08008A6
:10B88000C7E7EB68B3F80280B0450BDA03A8B5F060
:10B8900000FF4FF00708BCE7EB689A88B242F5D387
:10B8A000B3F80280039840B9024609E0022EEDDCAD
:10B8B000039870B90246BEE7B046B5F056FF82B2B3
:10B8C00093194345B7DD03A8B5F0E3FE4FF00D082B
:10B8D0009FE74FF00208F0E7E8680630002303997D
:10B8E0003044B5F0CCFE002CB3D02B7A032B43D1DF
:10B8F0002E4642F6030903A8B5F0CBFE2C4BDB6ABB
:10B90000D3F80080464505D97088FCF7C9FC484546
:10B9100030D11036697B2046FCF7ECFA36880346B6
:10B920000122314620460097FCF783FF4FF00008C4
:10B930006FE7E868B3188380CFE7039B9A79D979DA
:10B94000891AC9B2481E012811D8134402291A7B4A
:10B9500004BF5B7B42EA03222B7B32EA03037FF4C2
:10B960007AAF01232046697BFFF731FEBBE74FF03A
:10B970000D0870E7103EC5E7204650F80C1B227FEB
:10B9800091F87010039B8DF814108DF8182040F278
:10B99000015105AA0493ADF81670ADF81A6007932B
:10B9A000B5F0ACFD0028C1D104A8B5F072FEBDE72A
:10B9B00008120020002170B5421D03790446084694
:10B9C000B6F07BF80546A8B142F62A30FDF7C8F874
:10B9D0002688864210D062882B4631460020FFF729
:10B9E00003FF044608B100F58854054850F0D4FE22
:10B9F000848070BD1A24F8E741F20314F5E700BF14
:10BA000020020A0230B5044685B06846FFF7DCFB29
:10BA100010216846B6F066F82046FCF737FB6B4607
:10BA2000C26804AD06321C4603CCAC4210605160C3
:10BA3000234602F10802F6D105B030BD37B50488BF
:10BA4000458842F62A30FDF78BF8844201D1FFF792
:10BA5000D9FF214600200DF105030DF10602FDF787
:10BA600095F89DF805402CB9BDF8061039B90A467D
:10BA70000C460CE0002204F58854114607E08D4284
:10BA80000BD8491B89B2F82928BFF821421905486B
:10BA900050F0C6FE848003B030BD224641F2071448
:10BAA000EBE700BF20030A002DE9F043002689B030
:10BAB0001546012204460F460393ADF81660FCF7C5
:10BAC00090FC8DF8150000283CD142F62A30FDF795
:10BAD00047F8874201D1FFF795FF3846FCF704FB92
